{
  "contractName": "wizard",
  "abi": [
    {
      "inputs": [],
      "stateMutability": "nonpayable",
      "type": "constructor"
    },
    {
      "anonymous": false,
      "inputs": [
        {
          "indexed": true,
          "internalType": "address",
          "name": "account",
          "type": "address"
        },
        {
          "indexed": true,
          "internalType": "address",
          "name": "operator",
          "type": "address"
        },
        {
          "indexed": false,
          "internalType": "bool",
          "name": "approved",
          "type": "bool"
        }
      ],
      "name": "ApprovalForAll",
      "type": "event"
    },
    {
      "anonymous": false,
      "inputs": [
        {
          "indexed": false,
          "internalType": "address",
          "name": "account",
          "type": "address"
        }
      ],
      "name": "Paused",
      "type": "event"
    },
    {
      "anonymous": false,
      "inputs": [
        {
          "indexed": true,
          "internalType": "bytes32",
          "name": "role",
          "type": "bytes32"
        },
        {
          "indexed": true,
          "internalType": "bytes32",
          "name": "previousAdminRole",
          "type": "bytes32"
        },
        {
          "indexed": true,
          "internalType": "bytes32",
          "name": "newAdminRole",
          "type": "bytes32"
        }
      ],
      "name": "RoleAdminChanged",
      "type": "event"
    },
    {
      "anonymous": false,
      "inputs": [
        {
          "indexed": true,
          "internalType": "bytes32",
          "name": "role",
          "type": "bytes32"
        },
        {
          "indexed": true,
          "internalType": "address",
          "name": "account",
          "type": "address"
        },
        {
          "indexed": true,
          "internalType": "address",
          "name": "sender",
          "type": "address"
        }
      ],
      "name": "RoleGranted",
      "type": "event"
    },
    {
      "anonymous": false,
      "inputs": [
        {
          "indexed": true,
          "internalType": "bytes32",
          "name": "role",
          "type": "bytes32"
        },
        {
          "indexed": true,
          "internalType": "address",
          "name": "account",
          "type": "address"
        },
        {
          "indexed": true,
          "internalType": "address",
          "name": "sender",
          "type": "address"
        }
      ],
      "name": "RoleRevoked",
      "type": "event"
    },
    {
      "anonymous": false,
      "inputs": [
        {
          "indexed": true,
          "internalType": "address",
          "name": "operator",
          "type": "address"
        },
        {
          "indexed": true,
          "internalType": "address",
          "name": "from",
          "type": "address"
        },
        {
          "indexed": true,
          "internalType": "address",
          "name": "to",
          "type": "address"
        },
        {
          "indexed": false,
          "internalType": "uint256[]",
          "name": "ids",
          "type": "uint256[]"
        },
        {
          "indexed": false,
          "internalType": "uint256[]",
          "name": "values",
          "type": "uint256[]"
        }
      ],
      "name": "TransferBatch",
      "type": "event"
    },
    {
      "anonymous": false,
      "inputs": [
        {
          "indexed": true,
          "internalType": "address",
          "name": "operator",
          "type": "address"
        },
        {
          "indexed": true,
          "internalType": "address",
          "name": "from",
          "type": "address"
        },
        {
          "indexed": true,
          "internalType": "address",
          "name": "to",
          "type": "address"
        },
        {
          "indexed": false,
          "internalType": "uint256",
          "name": "id",
          "type": "uint256"
        },
        {
          "indexed": false,
          "internalType": "uint256",
          "name": "value",
          "type": "uint256"
        }
      ],
      "name": "TransferSingle",
      "type": "event"
    },
    {
      "anonymous": false,
      "inputs": [
        {
          "indexed": false,
          "internalType": "string",
          "name": "value",
          "type": "string"
        },
        {
          "indexed": true,
          "internalType": "uint256",
          "name": "id",
          "type": "uint256"
        }
      ],
      "name": "URI",
      "type": "event"
    },
    {
      "anonymous": false,
      "inputs": [
        {
          "indexed": false,
          "internalType": "address",
          "name": "account",
          "type": "address"
        }
      ],
      "name": "Unpaused",
      "type": "event"
    },
    {
      "inputs": [],
      "name": "DEFAULT_ADMIN_ROLE",
      "outputs": [
        {
          "internalType": "bytes32",
          "name": "",
          "type": "bytes32"
        }
      ],
      "stateMutability": "view",
      "type": "function",
      "constant": true
    },
    {
      "inputs": [],
      "name": "MINTER_ROLE",
      "outputs": [
        {
          "internalType": "bytes32",
          "name": "",
          "type": "bytes32"
        }
      ],
      "stateMutability": "view",
      "type": "function",
      "constant": true
    },
    {
      "inputs": [],
      "name": "PAUSER_ROLE",
      "outputs": [
        {
          "internalType": "bytes32",
          "name": "",
          "type": "bytes32"
        }
      ],
      "stateMutability": "view",
      "type": "function",
      "constant": true
    },
    {
      "inputs": [],
      "name": "URI_SETTER_ROLE",
      "outputs": [
        {
          "internalType": "bytes32",
          "name": "",
          "type": "bytes32"
        }
      ],
      "stateMutability": "view",
      "type": "function",
      "constant": true
    },
    {
      "inputs": [
        {
          "internalType": "address",
          "name": "account",
          "type": "address"
        },
        {
          "internalType": "uint256",
          "name": "id",
          "type": "uint256"
        }
      ],
      "name": "balanceOf",
      "outputs": [
        {
          "internalType": "uint256",
          "name": "",
          "type": "uint256"
        }
      ],
      "stateMutability": "view",
      "type": "function",
      "constant": true
    },
    {
      "inputs": [
        {
          "internalType": "address[]",
          "name": "accounts",
          "type": "address[]"
        },
        {
          "internalType": "uint256[]",
          "name": "ids",
          "type": "uint256[]"
        }
      ],
      "name": "balanceOfBatch",
      "outputs": [
        {
          "internalType": "uint256[]",
          "name": "",
          "type": "uint256[]"
        }
      ],
      "stateMutability": "view",
      "type": "function",
      "constant": true
    },
    {
      "inputs": [
        {
          "internalType": "address",
          "name": "account",
          "type": "address"
        },
        {
          "internalType": "uint256",
          "name": "id",
          "type": "uint256"
        },
        {
          "internalType": "uint256",
          "name": "value",
          "type": "uint256"
        }
      ],
      "name": "burn",
      "outputs": [],
      "stateMutability": "nonpayable",
      "type": "function"
    },
    {
      "inputs": [
        {
          "internalType": "address",
          "name": "account",
          "type": "address"
        },
        {
          "internalType": "uint256[]",
          "name": "ids",
          "type": "uint256[]"
        },
        {
          "internalType": "uint256[]",
          "name": "values",
          "type": "uint256[]"
        }
      ],
      "name": "burnBatch",
      "outputs": [],
      "stateMutability": "nonpayable",
      "type": "function"
    },
    {
      "inputs": [
        {
          "internalType": "bytes32",
          "name": "role",
          "type": "bytes32"
        }
      ],
      "name": "getRoleAdmin",
      "outputs": [
        {
          "internalType": "bytes32",
          "name": "",
          "type": "bytes32"
        }
      ],
      "stateMutability": "view",
      "type": "function",
      "constant": true
    },
    {
      "inputs": [
        {
          "internalType": "bytes32",
          "name": "role",
          "type": "bytes32"
        },
        {
          "internalType": "address",
          "name": "account",
          "type": "address"
        }
      ],
      "name": "grantRole",
      "outputs": [],
      "stateMutability": "nonpayable",
      "type": "function"
    },
    {
      "inputs": [
        {
          "internalType": "bytes32",
          "name": "role",
          "type": "bytes32"
        },
        {
          "internalType": "address",
          "name": "account",
          "type": "address"
        }
      ],
      "name": "hasRole",
      "outputs": [
        {
          "internalType": "bool",
          "name": "",
          "type": "bool"
        }
      ],
      "stateMutability": "view",
      "type": "function",
      "constant": true
    },
    {
      "inputs": [
        {
          "internalType": "address",
          "name": "account",
          "type": "address"
        },
        {
          "internalType": "address",
          "name": "operator",
          "type": "address"
        }
      ],
      "name": "isApprovedForAll",
      "outputs": [
        {
          "internalType": "bool",
          "name": "",
          "type": "bool"
        }
      ],
      "stateMutability": "view",
      "type": "function",
      "constant": true
    },
    {
      "inputs": [],
      "name": "paused",
      "outputs": [
        {
          "internalType": "bool",
          "name": "",
          "type": "bool"
        }
      ],
      "stateMutability": "view",
      "type": "function",
      "constant": true
    },
    {
      "inputs": [
        {
          "internalType": "bytes32",
          "name": "role",
          "type": "bytes32"
        },
        {
          "internalType": "address",
          "name": "account",
          "type": "address"
        }
      ],
      "name": "renounceRole",
      "outputs": [],
      "stateMutability": "nonpayable",
      "type": "function"
    },
    {
      "inputs": [
        {
          "internalType": "bytes32",
          "name": "role",
          "type": "bytes32"
        },
        {
          "internalType": "address",
          "name": "account",
          "type": "address"
        }
      ],
      "name": "revokeRole",
      "outputs": [],
      "stateMutability": "nonpayable",
      "type": "function"
    },
    {
      "inputs": [
        {
          "internalType": "address",
          "name": "from",
          "type": "address"
        },
        {
          "internalType": "address",
          "name": "to",
          "type": "address"
        },
        {
          "internalType": "uint256[]",
          "name": "ids",
          "type": "uint256[]"
        },
        {
          "internalType": "uint256[]",
          "name": "amounts",
          "type": "uint256[]"
        },
        {
          "internalType": "bytes",
          "name": "data",
          "type": "bytes"
        }
      ],
      "name": "safeBatchTransferFrom",
      "outputs": [],
      "stateMutability": "nonpayable",
      "type": "function"
    },
    {
      "inputs": [
        {
          "internalType": "address",
          "name": "from",
          "type": "address"
        },
        {
          "internalType": "address",
          "name": "to",
          "type": "address"
        },
        {
          "internalType": "uint256",
          "name": "id",
          "type": "uint256"
        },
        {
          "internalType": "uint256",
          "name": "amount",
          "type": "uint256"
        },
        {
          "internalType": "bytes",
          "name": "data",
          "type": "bytes"
        }
      ],
      "name": "safeTransferFrom",
      "outputs": [],
      "stateMutability": "nonpayable",
      "type": "function"
    },
    {
      "inputs": [
        {
          "internalType": "address",
          "name": "operator",
          "type": "address"
        },
        {
          "internalType": "bool",
          "name": "approved",
          "type": "bool"
        }
      ],
      "name": "setApprovalForAll",
      "outputs": [],
      "stateMutability": "nonpayable",
      "type": "function"
    },
    {
      "inputs": [
        {
          "internalType": "uint256",
          "name": "",
          "type": "uint256"
        }
      ],
      "name": "uri",
      "outputs": [
        {
          "internalType": "string",
          "name": "",
          "type": "string"
        }
      ],
      "stateMutability": "view",
      "type": "function",
      "constant": true
    },
    {
      "inputs": [
        {
          "internalType": "string",
          "name": "newuri",
          "type": "string"
        }
      ],
      "name": "setURI",
      "outputs": [],
      "stateMutability": "nonpayable",
      "type": "function"
    },
    {
      "inputs": [],
      "name": "pause",
      "outputs": [],
      "stateMutability": "nonpayable",
      "type": "function"
    },
    {
      "inputs": [],
      "name": "unpause",
      "outputs": [],
      "stateMutability": "nonpayable",
      "type": "function"
    },
    {
      "inputs": [
        {
          "internalType": "address",
          "name": "account",
          "type": "address"
        },
        {
          "internalType": "uint256",
          "name": "id",
          "type": "uint256"
        },
        {
          "internalType": "uint256",
          "name": "amount",
          "type": "uint256"
        },
        {
          "internalType": "bytes",
          "name": "data",
          "type": "bytes"
        }
      ],
      "name": "mint",
      "outputs": [],
      "stateMutability": "nonpayable",
      "type": "function"
    },
    {
      "inputs": [
        {
          "internalType": "address",
          "name": "to",
          "type": "address"
        },
        {
          "internalType": "uint256[]",
          "name": "ids",
          "type": "uint256[]"
        },
        {
          "internalType": "uint256[]",
          "name": "amounts",
          "type": "uint256[]"
        },
        {
          "internalType": "bytes",
          "name": "data",
          "type": "bytes"
        }
      ],
      "name": "mintBatch",
      "outputs": [],
      "stateMutability": "nonpayable",
      "type": "function"
    },
    {
      "inputs": [
        {
          "internalType": "bytes4",
          "name": "interfaceId",
          "type": "bytes4"
        }
      ],
      "name": "supportsInterface",
      "outputs": [
        {
          "internalType": "bool",
          "name": "",
          "type": "bool"
        }
      ],
      "stateMutability": "view",
      "type": "function",
      "constant": true
    }
  ],
  "bytecode": "0x60806040523480156200001157600080fd5b5060405180606001604052806024815260200162004a63602491396200003d816200010a60201b60201c565b506000600460006101000a81548160ff0219169083151502179055506200006e6000801b336200012660201b60201c565b620000a07f7804d923f43a17d325d77e781528e0793b2edd9890ab45fc64efd7b4b427744c336200012660201b60201c565b620000d27f65d7a28e3265b37a6474929f336521b332c1681b933f6cb9f3376673440d862a336200012660201b60201c565b620001047f9f2df0fed2c77648de5860a4cc508cd0818c85b8b8a1ab4ceeef8d981c8956a6336200012660201b60201c565b620003b6565b806002908051906020019062000122929190620002a1565b5050565b6200013882826200013c60201b60201c565b5050565b6200014e82826200022e60201b60201c565b6200022a5760016003600084815260200190815260200160002060000160008373ffffffffffffffffffffffffffffffffffffffff1673ffffffffffffffffffffffffffffffffffffffff16815260200190815260200160002060006101000a81548160ff021916908315150217905550620001cf6200029960201b60201c565b73ffffffffffffffffffffffffffffffffffffffff168173ffffffffffffffffffffffffffffffffffffffff16837f2f8788117e7eff1d82e926ec794901d17c78024a50270940304540a733656f0d60405160405180910390a45b5050565b60006003600084815260200190815260200160002060000160008373ffffffffffffffffffffffffffffffffffffffff1673ffffffffffffffffffffffffffffffffffffffff16815260200190815260200160002060009054906101000a900460ff16905092915050565b600033905090565b828054620002af9062000351565b90600052602060002090601f016020900481019282620002d357600085556200031f565b82601f10620002ee57805160ff19168380011785556200031f565b828001600101855582156200031f579182015b828111156200031e57825182559160200191906001019062000301565b5b5090506200032e919062000332565b5090565b5b808211156200034d57600081600090555060010162000333565b5090565b600060028204905060018216806200036a57607f821691505b6020821081141562000381576200038062000387565b5b50919050565b7f4e487b7100000000000000000000000000000000000000000000000000000000600052602260045260246000fd5b61469d80620003c66000396000f3fe608060405234801561001057600080fd5b50600436106101725760003560e01c80636b20c454116100de578063a22cb46511610097578063e63ab1e911610071578063e63ab1e91461041f578063e985e9c51461043d578063f242432a1461046d578063f5298aca1461048957610172565b8063a22cb465146103c9578063d5391393146103e5578063d547741f1461040357610172565b80636b20c4541461031b578063731133e9146103375780637f345710146103535780638456cb591461037157806391d148541461037b578063a217fddf146103ab57610172565b80632eb2c2d6116101305780632eb2c2d61461026f5780632f2ff15d1461028b57806336568abe146102a75780633f4ba83a146102c35780634e1273f4146102cd5780635c975abb146102fd57610172565b8062fdd58e1461017757806301ffc9a7146101a757806302fe5305146101d75780630e89341c146101f35780631f7fdffa14610223578063248a9ca31461023f575b600080fd5b610191600480360381019061018c91906131ee565b6104a5565b60405161019e91906140a1565b60405180910390f35b6101c160048036038101906101bc91906133c5565b61056e565b6040516101ce9190613e29565b60405180910390f35b6101f160048036038101906101ec9190613417565b610580565b005b61020d60048036038101906102089190613458565b6105bf565b60405161021a9190613e5f565b60405180910390f35b61023d60048036038101906102389190613107565b610653565b005b61025960048036038101906102549190613360565b610698565b6040516102669190613e44565b60405180910390f35b61028960048036038101906102849190612f3a565b6106b8565b005b6102a560048036038101906102a09190613389565b610aae565b005b6102c160048036038101906102bc9190613389565b610ad7565b005b6102cb610b5a565b005b6102e760048036038101906102e291906132f4565b610b97565b6040516102f49190613dd0565b60405180910390f35b610305610d48565b6040516103129190613e29565b60405180910390f35b61033560048036038101906103309190613088565b610d5f565b005b610351600480360381019061034c9190613279565b610dfc565b005b61035b610e41565b6040516103689190613e44565b60405180910390f35b610379610e65565b005b61039560048036038101906103909190613389565b610ea2565b6040516103a29190613e29565b60405180910390f35b6103b3610f0d565b6040516103c09190613e44565b60405180910390f35b6103e360048036038101906103de91906131b2565b610f14565b005b6103ed611095565b6040516103fa9190613e44565b60405180910390f35b61041d60048036038101906104189190613389565b6110b9565b005b6104276110e2565b6040516104349190613e44565b60405180910390f35b61045760048036038101906104529190612efe565b611106565b6040516104649190613e29565b60405180910390f35b61048760048036038101906104829190612ff9565b61119a565b005b6104a3600480360381019061049e919061322a565b6114b2565b005b60008073ffffffffffffffffffffffffffffffffffffffff168373ffffffffffffffffffffffffffffffffffffffff161415610516576040517f08c379a000000000000000000000000000000000000000000000000000000000815260040161050d90613f01565b60405180910390fd5b60008083815260200190815260200160002060008473ffffffffffffffffffffffffffffffffffffffff1673ffffffffffffffffffffffffffffffffffffffff16815260200190815260200160002054905092915050565b60006105798261154f565b9050919050565b6105aa7f7804d923f43a17d325d77e781528e0793b2edd9890ab45fc64efd7b4b427744c33610ea2565b6105b357600080fd5b6105bc816115c9565b50565b6060600280546105ce90614418565b80601f01602080910402602001604051908101604052809291908181526020018280546105fa90614418565b80156106475780601f1061061c57610100808354040283529160200191610647565b820191906000526020600020905b81548152906001019060200180831161062a57829003601f168201915b50505050509050919050565b61067d7f9f2df0fed2c77648de5860a4cc508cd0818c85b8b8a1ab4ceeef8d981c8956a633610ea2565b61068657600080fd5b610692848484846115e3565b50505050565b600060036000838152602001908152602001600020600101549050919050565b81518351146106fc576040517f08c379a00000000000000000000000000000000000000000000000000000000081526004016106f390614041565b60405180910390fd5b600073ffffffffffffffffffffffffffffffffffffffff168473ffffffffffffffffffffffffffffffffffffffff16141561076c576040517f08c379a000000000000000000000000000000000000000000000000000000000815260040161076390613f81565b60405180910390fd5b61077461184d565b73ffffffffffffffffffffffffffffffffffffffff168573ffffffffffffffffffffffffffffffffffffffff1614806107ba57506107b9856107b461184d565b611106565b5b6107f9576040517f08c379a00000000000000000000000000000000000000000000000000000000081526004016107f090613fa1565b60405180910390fd5b600061080361184d565b9050610813818787878787611855565b60005b8451811015610a1957600085828151811061085a577f4e487b7100000000000000000000000000000000000000000000000000000000600052603260045260246000fd5b60200260200101519050600085838151811061089f577f4e487b7100000000000000000000000000000000000000000000000000000000600052603260045260246000fd5b60200260200101519050600080600084815260200190815260200160002060008b73ffffffffffffffffffffffffffffffffffffffff1673ffffffffffffffffffffffffffffffffffffffff16815260200190815260200160002054905081811015610940576040517f08c379a000000000000000000000000000000000000000000000000000000000815260040161093790613fe1565b60405180910390fd5b818161094c91906142fa565b60008085815260200190815260200160002060008c73ffffffffffffffffffffffffffffffffffffffff1673ffffffffffffffffffffffffffffffffffffffff168152602001908152602001600020819055508160008085815260200190815260200160002060008b73ffffffffffffffffffffffffffffffffffffffff1673ffffffffffffffffffffffffffffffffffffffff16815260200190815260200160002060008282546109fe919061424a565b9250508190555050505080610a129061444a565b9050610816565b508473ffffffffffffffffffffffffffffffffffffffff168673ffffffffffffffffffffffffffffffffffffffff168273ffffffffffffffffffffffffffffffffffffffff167f4a39dc06d4c0dbc64b70af90fd698a233a518aa5d07e595d983b8c0526c8f7fb8787604051610a90929190613df2565b60405180910390a4610aa68187878787876118b3565b505050505050565b610ab782610698565b610ac881610ac361184d565b611a83565b610ad28383611b20565b505050565b610adf61184d565b73ffffffffffffffffffffffffffffffffffffffff168173ffffffffffffffffffffffffffffffffffffffff1614610b4c576040517f08c379a0000000000000000000000000000000000000000000000000000000008152600401610b4390614081565b60405180910390fd5b610b568282611c01565b5050565b610b847f65d7a28e3265b37a6474929f336521b332c1681b933f6cb9f3376673440d862a33610ea2565b610b8d57600080fd5b610b95611ce3565b565b60608151835114610bdd576040517f08c379a0000000000000000000000000000000000000000000000000000000008152600401610bd490614021565b60405180910390fd5b6000835167ffffffffffffffff811115610c20577f4e487b7100000000000000000000000000000000000000000000000000000000600052604160045260246000fd5b604051908082528060200260200182016040528015610c4e5781602001602082028036833780820191505090505b50905060005b8451811015610d3d57610ce7858281518110610c99577f4e487b7100000000000000000000000000000000000000000000000000000000600052603260045260246000fd5b6020026020010151858381518110610cda577f4e487b7100000000000000000000000000000000000000000000000000000000600052603260045260246000fd5b60200260200101516104a5565b828281518110610d20577f4e487b7100000000000000000000000000000000000000000000000000000000600052603260045260246000fd5b60200260200101818152505080610d369061444a565b9050610c54565b508091505092915050565b6000600460009054906101000a900460ff16905090565b610d6761184d565b73ffffffffffffffffffffffffffffffffffffffff168373ffffffffffffffffffffffffffffffffffffffff161480610dad5750610dac83610da761184d565b611106565b5b610dec576040517f08c379a0000000000000000000000000000000000000000000000000000000008152600401610de390613f41565b60405180910390fd5b610df7838383611d85565b505050565b610e267f9f2df0fed2c77648de5860a4cc508cd0818c85b8b8a1ab4ceeef8d981c8956a633610ea2565b610e2f57600080fd5b610e3b8484848461208b565b50505050565b7f7804d923f43a17d325d77e781528e0793b2edd9890ab45fc64efd7b4b427744c81565b610e8f7f65d7a28e3265b37a6474929f336521b332c1681b933f6cb9f3376673440d862a33610ea2565b610e9857600080fd5b610ea0612221565b565b60006003600084815260200190815260200160002060000160008373ffffffffffffffffffffffffffffffffffffffff1673ffffffffffffffffffffffffffffffffffffffff16815260200190815260200160002060009054906101000a900460ff16905092915050565b6000801b81565b8173ffffffffffffffffffffffffffffffffffffffff16610f3361184d565b73ffffffffffffffffffffffffffffffffffffffff161415610f8a576040517f08c379a0000000000000000000000000000000000000000000000000000000008152600401610f8190614001565b60405180910390fd5b8060016000610f9761184d565b73ffffffffffffffffffffffffffffffffffffffff1673ffffffffffffffffffffffffffffffffffffffff16815260200190815260200160002060008473ffffffffffffffffffffffffffffffffffffffff1673ffffffffffffffffffffffffffffffffffffffff16815260200190815260200160002060006101000a81548160ff0219169083151502179055508173ffffffffffffffffffffffffffffffffffffffff1661104461184d565b73ffffffffffffffffffffffffffffffffffffffff167f17307eab39ab6107e8899845ad3d59bd9653f200f220920489ca2b5937696c31836040516110899190613e29565b60405180910390a35050565b7f9f2df0fed2c77648de5860a4cc508cd0818c85b8b8a1ab4ceeef8d981c8956a681565b6110c282610698565b6110d3816110ce61184d565b611a83565b6110dd8383611c01565b505050565b7f65d7a28e3265b37a6474929f336521b332c1681b933f6cb9f3376673440d862a81565b6000600160008473ffffffffffffffffffffffffffffffffffffffff1673ffffffffffffffffffffffffffffffffffffffff16815260200190815260200160002060008373ffffffffffffffffffffffffffffffffffffffff1673ffffffffffffffffffffffffffffffffffffffff16815260200190815260200160002060009054906101000a900460ff16905092915050565b600073ffffffffffffffffffffffffffffffffffffffff168473ffffffffffffffffffffffffffffffffffffffff16141561120a576040517f08c379a000000000000000000000000000000000000000000000000000000000815260040161120190613f81565b60405180910390fd5b61121261184d565b73ffffffffffffffffffffffffffffffffffffffff168573ffffffffffffffffffffffffffffffffffffffff16148061125857506112578561125261184d565b611106565b5b611297576040517f08c379a000000000000000000000000000000000000000000000000000000000815260040161128e90613f41565b60405180910390fd5b60006112a161184d565b90506112c18187876112b2886122c4565b6112bb886122c4565b87611855565b600080600086815260200190815260200160002060008873ffffffffffffffffffffffffffffffffffffffff1673ffffffffffffffffffffffffffffffffffffffff16815260200190815260200160002054905083811015611358576040517f08c379a000000000000000000000000000000000000000000000000000000000815260040161134f90613fe1565b60405180910390fd5b838161136491906142fa565b60008087815260200190815260200160002060008973ffffffffffffffffffffffffffffffffffffffff1673ffffffffffffffffffffffffffffffffffffffff168152602001908152602001600020819055508360008087815260200190815260200160002060008873ffffffffffffffffffffffffffffffffffffffff1673ffffffffffffffffffffffffffffffffffffffff1681526020019081526020016000206000828254611416919061424a565b925050819055508573ffffffffffffffffffffffffffffffffffffffff168773ffffffffffffffffffffffffffffffffffffffff168373ffffffffffffffffffffffffffffffffffffffff167fc3d58168c5ae7397731d063d5bbf3d657854427343f4c083240f7aacaa2d0f6288886040516114939291906140bc565b60405180910390a46114a982888888888861238a565b50505050505050565b6114ba61184d565b73ffffffffffffffffffffffffffffffffffffffff168373ffffffffffffffffffffffffffffffffffffffff16148061150057506114ff836114fa61184d565b611106565b5b61153f576040517f08c379a000000000000000000000000000000000000000000000000000000000815260040161153690613f41565b60405180910390fd5b61154a83838361255a565b505050565b60007f7965db0b000000000000000000000000000000000000000000000000000000007bffffffffffffffffffffffffffffffffffffffffffffffffffffffff1916827bffffffffffffffffffffffffffffffffffffffffffffffffffffffff191614806115c257506115c182612780565b5b9050919050565b80600290805190602001906115df929190612be1565b5050565b600073ffffffffffffffffffffffffffffffffffffffff168473ffffffffffffffffffffffffffffffffffffffff161415611653576040517f08c379a000000000000000000000000000000000000000000000000000000000815260040161164a90614061565b60405180910390fd5b8151835114611697576040517f08c379a000000000000000000000000000000000000000000000000000000000815260040161168e90614041565b60405180910390fd5b60006116a161184d565b90506116b281600087878787611855565b60005b84518110156117b7578381815181106116f7577f4e487b7100000000000000000000000000000000000000000000000000000000600052603260045260246000fd5b602002602001015160008087848151811061173b577f4e487b7100000000000000000000000000000000000000000000000000000000600052603260045260246000fd5b6020026020010151815260200190815260200160002060008873ffffffffffffffffffffffffffffffffffffffff1673ffffffffffffffffffffffffffffffffffffffff168152602001908152602001600020600082825461179d919061424a565b9250508190555080806117af9061444a565b9150506116b5565b508473ffffffffffffffffffffffffffffffffffffffff16600073ffffffffffffffffffffffffffffffffffffffff168273ffffffffffffffffffffffffffffffffffffffff167f4a39dc06d4c0dbc64b70af90fd698a233a518aa5d07e595d983b8c0526c8f7fb878760405161182f929190613df2565b60405180910390a4611846816000878787876118b3565b5050505050565b600033905090565b61185d610d48565b1561189d576040517f08c379a000000000000000000000000000000000000000000000000000000000815260040161189490613f61565b60405180910390fd5b6118ab868686868686612862565b505050505050565b6118d28473ffffffffffffffffffffffffffffffffffffffff1661286a565b15611a7b578373ffffffffffffffffffffffffffffffffffffffff1663bc197c8187878686866040518663ffffffff1660e01b8152600401611918959493929190613d0e565b602060405180830381600087803b15801561193257600080fd5b505af192505050801561196357506040513d601f19601f8201168201806040525081019061196091906133ee565b60015b6119f25761196f61453e565b8061197a57506119b7565b806040517f08c379a00000000000000000000000000000000000000000000000000000000081526004016119ae9190613e5f565b60405180910390fd5b6040517f08c379a00000000000000000000000000000000000000000000000000000000081526004016119e990613e81565b60405180910390fd5b63bc197c8160e01b7bffffffffffffffffffffffffffffffffffffffffffffffffffffffff1916817bffffffffffffffffffffffffffffffffffffffffffffffffffffffff191614611a79576040517f08c379a0000000000000000000000000000000000000000000000000000000008152600401611a7090613ec1565b60405180910390fd5b505b505050505050565b611a8d8282610ea2565b611b1c57611ab28173ffffffffffffffffffffffffffffffffffffffff16601461287d565b611ac08360001c602061287d565b604051602001611ad1929190613cb9565b6040516020818303038152906040526040517f08c379a0000000000000000000000000000000000000000000000000000000008152600401611b139190613e5f565b60405180910390fd5b5050565b611b2a8282610ea2565b611bfd5760016003600084815260200190815260200160002060000160008373ffffffffffffffffffffffffffffffffffffffff1673ffffffffffffffffffffffffffffffffffffffff16815260200190815260200160002060006101000a81548160ff021916908315150217905550611ba261184d565b73ffffffffffffffffffffffffffffffffffffffff168173ffffffffffffffffffffffffffffffffffffffff16837f2f8788117e7eff1d82e926ec794901d17c78024a50270940304540a733656f0d60405160405180910390a45b5050565b611c0b8282610ea2565b15611cdf5760006003600084815260200190815260200160002060000160008373ffffffffffffffffffffffffffffffffffffffff1673ffffffffffffffffffffffffffffffffffffffff16815260200190815260200160002060006101000a81548160ff021916908315150217905550611c8461184d565b73ffffffffffffffffffffffffffffffffffffffff168173ffffffffffffffffffffffffffffffffffffffff16837ff6391f5c32d9c69d2a47ea670b442974b53935d1edc7fd64eb21e047a839171b60405160405180910390a45b5050565b611ceb610d48565b611d2a576040517f08c379a0000000000000000000000000000000000000000000000000000000008152600401611d2190613ee1565b60405180910390fd5b6000600460006101000a81548160ff0219169083151502179055507f5db9ee0a495bf2e6ff9c91a7834c1ba4fdd244a5e8aa4e537bd38aeae4b073aa611d6e61184d565b604051611d7b9190613cf3565b60405180910390a1565b600073ffffffffffffffffffffffffffffffffffffffff168373ffffffffffffffffffffffffffffffffffffffff161415611df5576040517f08c379a0000000000000000000000000000000000000000000000000000000008152600401611dec90613fc1565b60405180910390fd5b8051825114611e39576040517f08c379a0000000000000000000000000000000000000000000000000000000008152600401611e3090614041565b60405180910390fd5b6000611e4361184d565b9050611e6381856000868660405180602001604052806000815250611855565b60005b8351811015612005576000848281518110611eaa577f4e487b7100000000000000000000000000000000000000000000000000000000600052603260045260246000fd5b602002602001015190506000848381518110611eef577f4e487b7100000000000000000000000000000000000000000000000000000000600052603260045260246000fd5b60200260200101519050600080600084815260200190815260200160002060008973ffffffffffffffffffffffffffffffffffffffff1673ffffffffffffffffffffffffffffffffffffffff16815260200190815260200160002054905081811015611f90576040517f08c379a0000000000000000000000000000000000000000000000000000000008152600401611f8790613f21565b60405180910390fd5b8181611f9c91906142fa565b60008085815260200190815260200160002060008a73ffffffffffffffffffffffffffffffffffffffff1673ffffffffffffffffffffffffffffffffffffffff168152602001908152602001600020819055505050508080611ffd9061444a565b915050611e66565b50600073ffffffffffffffffffffffffffffffffffffffff168473ffffffffffffffffffffffffffffffffffffffff168273ffffffffffffffffffffffffffffffffffffffff167f4a39dc06d4c0dbc64b70af90fd698a233a518aa5d07e595d983b8c0526c8f7fb868660405161207d929190613df2565b60405180910390a450505050565b600073ffffffffffffffffffffffffffffffffffffffff168473ffffffffffffffffffffffffffffffffffffffff1614156120fb576040517f08c379a00000000000000000000000000000000000000000000000000000000081526004016120f290614061565b60405180910390fd5b600061210561184d565b905061212681600087612117886122c4565b612120886122c4565b87611855565b8260008086815260200190815260200160002060008773ffffffffffffffffffffffffffffffffffffffff1673ffffffffffffffffffffffffffffffffffffffff1681526020019081526020016000206000828254612185919061424a565b925050819055508473ffffffffffffffffffffffffffffffffffffffff16600073ffffffffffffffffffffffffffffffffffffffff168273ffffffffffffffffffffffffffffffffffffffff167fc3d58168c5ae7397731d063d5bbf3d657854427343f4c083240f7aacaa2d0f6287876040516122039291906140bc565b60405180910390a461221a8160008787878761238a565b5050505050565b612229610d48565b15612269576040517f08c379a000000000000000000000000000000000000000000000000000000000815260040161226090613f61565b60405180910390fd5b6001600460006101000a81548160ff0219169083151502179055507f62e78cea01bee320cd4e420270b5ea74000d11b0c9f74754ebdbfc544b05a2586122ad61184d565b6040516122ba9190613cf3565b60405180910390a1565b60606000600167ffffffffffffffff811115612309577f4e487b7100000000000000000000000000000000000000000000000000000000600052604160045260246000fd5b6040519080825280602002602001820160405280156123375781602001602082028036833780820191505090505b5090508281600081518110612375577f4e487b7100000000000000000000000000000000000000000000000000000000600052603260045260246000fd5b60200260200101818152505080915050919050565b6123a98473ffffffffffffffffffffffffffffffffffffffff1661286a565b15612552578373ffffffffffffffffffffffffffffffffffffffff1663f23a6e6187878686866040518663ffffffff1660e01b81526004016123ef959493929190613d76565b602060405180830381600087803b15801561240957600080fd5b505af192505050801561243a57506040513d601f19601f8201168201806040525081019061243791906133ee565b60015b6124c95761244661453e565b80612451575061248e565b806040517f08c379a00000000000000000000000000000000000000000000000000000000081526004016124859190613e5f565b60405180910390fd5b6040517f08c379a00000000000000000000000000000000000000000000000000000000081526004016124c090613e81565b60405180910390fd5b63f23a6e6160e01b7bffffffffffffffffffffffffffffffffffffffffffffffffffffffff1916817bffffffffffffffffffffffffffffffffffffffffffffffffffffffff191614612550576040517f08c379a000000000000000000000000000000000000000000000000000000000815260040161254790613ec1565b60405180910390fd5b505b505050505050565b600073ffffffffffffffffffffffffffffffffffffffff168373ffffffffffffffffffffffffffffffffffffffff1614156125ca576040517f08c379a00000000000000000000000000000000000000000000000000000000081526004016125c190613fc1565b60405180910390fd5b60006125d461184d565b9050612604818560006125e6876122c4565b6125ef876122c4565b60405180602001604052806000815250611855565b600080600085815260200190815260200160002060008673ffffffffffffffffffffffffffffffffffffffff1673ffffffffffffffffffffffffffffffffffffffff1681526020019081526020016000205490508281101561269b576040517f08c379a000000000000000000000000000000000000000000000000000000000815260040161269290613f21565b60405180910390fd5b82816126a791906142fa565b60008086815260200190815260200160002060008773ffffffffffffffffffffffffffffffffffffffff1673ffffffffffffffffffffffffffffffffffffffff16815260200190815260200160002081905550600073ffffffffffffffffffffffffffffffffffffffff168573ffffffffffffffffffffffffffffffffffffffff168373ffffffffffffffffffffffffffffffffffffffff167fc3d58168c5ae7397731d063d5bbf3d657854427343f4c083240f7aacaa2d0f6287876040516127719291906140bc565b60405180910390a45050505050565b60007fd9b67a26000000000000000000000000000000000000000000000000000000007bffffffffffffffffffffffffffffffffffffffffffffffffffffffff1916827bffffffffffffffffffffffffffffffffffffffffffffffffffffffff1916148061284b57507f0e89341c000000000000000000000000000000000000000000000000000000007bffffffffffffffffffffffffffffffffffffffffffffffffffffffff1916827bffffffffffffffffffffffffffffffffffffffffffffffffffffffff1916145b8061285b575061285a82612b77565b5b9050919050565b505050505050565b600080823b905060008111915050919050565b60606000600283600261289091906142a0565b61289a919061424a565b67ffffffffffffffff8111156128d9577f4e487b7100000000000000000000000000000000000000000000000000000000600052604160045260246000fd5b6040519080825280601f01601f19166020018201604052801561290b5781602001600182028036833780820191505090505b5090507f300000000000000000000000000000000000000000000000000000000000000081600081518110612969577f4e487b7100000000000000000000000000000000000000000000000000000000600052603260045260246000fd5b60200101907effffffffffffffffffffffffffffffffffffffffffffffffffffffffffffff1916908160001a9053507f7800000000000000000000000000000000000000000000000000000000000000816001815181106129f3577f4e487b7100000000000000000000000000000000000000000000000000000000600052603260045260246000fd5b60200101907effffffffffffffffffffffffffffffffffffffffffffffffffffffffffffff1916908160001a90535060006001846002612a3391906142a0565b612a3d919061424a565b90505b6001811115612b29577f3031323334353637383961626364656600000000000000000000000000000000600f861660108110612aa5577f4e487b7100000000000000000000000000000000000000000000000000000000600052603260045260246000fd5b1a60f81b828281518110612ae2577f4e487b7100000000000000000000000000000000000000000000000000000000600052603260045260246000fd5b60200101907effffffffffffffffffffffffffffffffffffffffffffffffffffffffffffff1916908160001a905350600485901c945080612b22906143ee565b9050612a40565b5060008414612b6d576040517f08c379a0000000000000000000000000000000000000000000000000000000008152600401612b6490613ea1565b60405180910390fd5b8091505092915050565b60007f01ffc9a7000000000000000000000000000000000000000000000000000000007bffffffffffffffffffffffffffffffffffffffffffffffffffffffff1916827bffffffffffffffffffffffffffffffffffffffffffffffffffffffff1916149050919050565b828054612bed90614418565b90600052602060002090601f016020900481019282612c0f5760008555612c56565b82601f10612c2857805160ff1916838001178555612c56565b82800160010185558215612c56579182015b82811115612c55578251825591602001919060010190612c3a565b5b509050612c639190612c67565b5090565b5b80821115612c80576000816000905550600101612c68565b5090565b6000612c97612c9284614116565b6140e5565b90508083825260208201905082856020860282011115612cb657600080fd5b60005b85811015612ce65781612ccc8882612dd8565b845260208401935060208301925050600181019050612cb9565b5050509392505050565b6000612d03612cfe84614142565b6140e5565b90508083825260208201905082856020860282011115612d2257600080fd5b60005b85811015612d525781612d388882612ee9565b845260208401935060208301925050600181019050612d25565b5050509392505050565b6000612d6f612d6a8461416e565b6140e5565b905082815260208101848484011115612d8757600080fd5b612d928482856143ac565b509392505050565b6000612dad612da88461419e565b6140e5565b905082815260208101848484011115612dc557600080fd5b612dd08482856143ac565b509392505050565b600081359050612de7816145f4565b92915050565b600082601f830112612dfe57600080fd5b8135612e0e848260208601612c84565b91505092915050565b600082601f830112612e2857600080fd5b8135612e38848260208601612cf0565b91505092915050565b600081359050612e508161460b565b92915050565b600081359050612e6581614622565b92915050565b600081359050612e7a81614639565b92915050565b600081519050612e8f81614639565b92915050565b600082601f830112612ea657600080fd5b8135612eb6848260208601612d5c565b91505092915050565b600082601f830112612ed057600080fd5b8135612ee0848260208601612d9a565b91505092915050565b600081359050612ef881614650565b92915050565b60008060408385031215612f1157600080fd5b6000612f1f85828601612dd8565b9250506020612f3085828601612dd8565b9150509250929050565b600080600080600060a08688031215612f5257600080fd5b6000612f6088828901612dd8565b9550506020612f7188828901612dd8565b945050604086013567ffffffffffffffff811115612f8e57600080fd5b612f9a88828901612e17565b935050606086013567ffffffffffffffff811115612fb757600080fd5b612fc388828901612e17565b925050608086013567ffffffffffffffff811115612fe057600080fd5b612fec88828901612e95565b9150509295509295909350565b600080600080600060a0868803121561301157600080fd5b600061301f88828901612dd8565b955050602061303088828901612dd8565b945050604061304188828901612ee9565b935050606061305288828901612ee9565b925050608086013567ffffffffffffffff81111561306f57600080fd5b61307b88828901612e95565b9150509295509295909350565b60008060006060848603121561309d57600080fd5b60006130ab86828701612dd8565b935050602084013567ffffffffffffffff8111156130c857600080fd5b6130d486828701612e17565b925050604084013567ffffffffffffffff8111156130f157600080fd5b6130fd86828701612e17565b9150509250925092565b6000806000806080858703121561311d57600080fd5b600061312b87828801612dd8565b945050602085013567ffffffffffffffff81111561314857600080fd5b61315487828801612e17565b935050604085013567ffffffffffffffff81111561317157600080fd5b61317d87828801612e17565b925050606085013567ffffffffffffffff81111561319a57600080fd5b6131a687828801612e95565b91505092959194509250565b600080604083850312156131c557600080fd5b60006131d385828601612dd8565b92505060206131e485828601612e41565b9150509250929050565b6000806040838503121561320157600080fd5b600061320f85828601612dd8565b925050602061322085828601612ee9565b9150509250929050565b60008060006060848603121561323f57600080fd5b600061324d86828701612dd8565b935050602061325e86828701612ee9565b925050604061326f86828701612ee9565b9150509250925092565b6000806000806080858703121561328f57600080fd5b600061329d87828801612dd8565b94505060206132ae87828801612ee9565b93505060406132bf87828801612ee9565b925050606085013567ffffffffffffffff8111156132dc57600080fd5b6132e887828801612e95565b91505092959194509250565b6000806040838503121561330757600080fd5b600083013567ffffffffffffffff81111561332157600080fd5b61332d85828601612ded565b925050602083013567ffffffffffffffff81111561334a57600080fd5b61335685828601612e17565b9150509250929050565b60006020828403121561337257600080fd5b600061338084828501612e56565b91505092915050565b6000806040838503121561339c57600080fd5b60006133aa85828601612e56565b92505060206133bb85828601612dd8565b9150509250929050565b6000602082840312156133d757600080fd5b60006133e584828501612e6b565b91505092915050565b60006020828403121561340057600080fd5b600061340e84828501612e80565b91505092915050565b60006020828403121561342957600080fd5b600082013567ffffffffffffffff81111561344357600080fd5b61344f84828501612ebf565b91505092915050565b60006020828403121561346a57600080fd5b600061347884828501612ee9565b91505092915050565b600061348d8383613c9b565b60208301905092915050565b6134a28161432e565b82525050565b60006134b3826141de565b6134bd818561420c565b93506134c8836141ce565b8060005b838110156134f95781516134e08882613481565b97506134eb836141ff565b9250506001810190506134cc565b5085935050505092915050565b61350f81614340565b82525050565b61351e8161434c565b82525050565b600061352f826141e9565b613539818561421d565b93506135498185602086016143bb565b61355281614520565b840191505092915050565b6000613568826141f4565b613572818561422e565b93506135828185602086016143bb565b61358b81614520565b840191505092915050565b60006135a1826141f4565b6135ab818561423f565b93506135bb8185602086016143bb565b80840191505092915050565b60006135d460348361422e565b91507f455243313135353a207472616e7366657220746f206e6f6e204552433131353560008301527f526563656976657220696d706c656d656e7465720000000000000000000000006020830152604082019050919050565b600061363a60208361422e565b91507f537472696e67733a20686578206c656e67746820696e73756666696369656e746000830152602082019050919050565b600061367a60288361422e565b91507f455243313135353a204552433131353552656365697665722072656a6563746560008301527f6420746f6b656e730000000000000000000000000000000000000000000000006020830152604082019050919050565b60006136e060148361422e565b91507f5061757361626c653a206e6f74207061757365640000000000000000000000006000830152602082019050919050565b6000613720602b8361422e565b91507f455243313135353a2062616c616e636520717565727920666f7220746865207a60008301527f65726f20616464726573730000000000000000000000000000000000000000006020830152604082019050919050565b600061378660248361422e565b91507f455243313135353a206275726e20616d6f756e7420657863656564732062616c60008301527f616e6365000000000000000000000000000000000000000000000000000000006020830152604082019050919050565b60006137ec60298361422e565b91507f455243313135353a2063616c6c6572206973206e6f74206f776e6572206e6f7260008301527f20617070726f76656400000000000000000000000000000000000000000000006020830152604082019050919050565b600061385260108361422e565b91507f5061757361626c653a20706175736564000000000000000000000000000000006000830152602082019050919050565b600061389260258361422e565b91507f455243313135353a207472616e7366657220746f20746865207a65726f20616460008301527f64726573730000000000000000000000000000000000000000000000000000006020830152604082019050919050565b60006138f860328361422e565b91507f455243313135353a207472616e736665722063616c6c6572206973206e6f742060008301527f6f776e6572206e6f7220617070726f76656400000000000000000000000000006020830152604082019050919050565b600061395e60238361422e565b91507f455243313135353a206275726e2066726f6d20746865207a65726f206164647260008301527f65737300000000000000000000000000000000000000000000000000000000006020830152604082019050919050565b60006139c4602a8361422e565b91507f455243313135353a20696e73756666696369656e742062616c616e636520666f60008301527f72207472616e73666572000000000000000000000000000000000000000000006020830152604082019050919050565b6000613a2a60178361423f565b91507f416363657373436f6e74726f6c3a206163636f756e74200000000000000000006000830152601782019050919050565b6000613a6a60298361422e565b91507f455243313135353a2073657474696e6720617070726f76616c2073746174757360008301527f20666f722073656c6600000000000000000000000000000000000000000000006020830152604082019050919050565b6000613ad060298361422e565b91507f455243313135353a206163636f756e747320616e6420696473206c656e67746860008301527f206d69736d6174636800000000000000000000000000000000000000000000006020830152604082019050919050565b6000613b3660288361422e565b91507f455243313135353a2069647320616e6420616d6f756e7473206c656e6774682060008301527f6d69736d617463680000000000000000000000000000000000000000000000006020830152604082019050919050565b6000613b9c60218361422e565b91507f455243313135353a206d696e7420746f20746865207a65726f2061646472657360008301527f73000000000000000000000000000000000000000000000000000000000000006020830152604082019050919050565b6000613c0260118361423f565b91507f206973206d697373696e6720726f6c65200000000000000000000000000000006000830152601182019050919050565b6000613c42602f8361422e565b91507f416363657373436f6e74726f6c3a2063616e206f6e6c792072656e6f756e636560008301527f20726f6c657320666f722073656c6600000000000000000000000000000000006020830152604082019050919050565b613ca4816143a2565b82525050565b613cb3816143a2565b82525050565b6000613cc482613a1d565b9150613cd08285613596565b9150613cdb82613bf5565b9150613ce78284613596565b91508190509392505050565b6000602082019050613d086000830184613499565b92915050565b600060a082019050613d236000830188613499565b613d306020830187613499565b8181036040830152613d4281866134a8565b90508181036060830152613d5681856134a8565b90508181036080830152613d6a8184613524565b90509695505050505050565b600060a082019050613d8b6000830188613499565b613d986020830187613499565b613da56040830186613caa565b613db26060830185613caa565b8181036080830152613dc48184613524565b90509695505050505050565b60006020820190508181036000830152613dea81846134a8565b905092915050565b60006040820190508181036000830152613e0c81856134a8565b90508181036020830152613e2081846134a8565b90509392505050565b6000602082019050613e3e6000830184613506565b92915050565b6000602082019050613e596000830184613515565b92915050565b60006020820190508181036000830152613e79818461355d565b905092915050565b60006020820190508181036000830152613e9a816135c7565b9050919050565b60006020820190508181036000830152613eba8161362d565b9050919050565b60006020820190508181036000830152613eda8161366d565b9050919050565b60006020820190508181036000830152613efa816136d3565b9050919050565b60006020820190508181036000830152613f1a81613713565b9050919050565b60006020820190508181036000830152613f3a81613779565b9050919050565b60006020820190508181036000830152613f5a816137df565b9050919050565b60006020820190508181036000830152613f7a81613845565b9050919050565b60006020820190508181036000830152613f9a81613885565b9050919050565b60006020820190508181036000830152613fba816138eb565b9050919050565b60006020820190508181036000830152613fda81613951565b9050919050565b60006020820190508181036000830152613ffa816139b7565b9050919050565b6000602082019050818103600083015261401a81613a5d565b9050919050565b6000602082019050818103600083015261403a81613ac3565b9050919050565b6000602082019050818103600083015261405a81613b29565b9050919050565b6000602082019050818103600083015261407a81613b8f565b9050919050565b6000602082019050818103600083015261409a81613c35565b9050919050565b60006020820190506140b66000830184613caa565b92915050565b60006040820190506140d16000830185613caa565b6140de6020830184613caa565b9392505050565b6000604051905081810181811067ffffffffffffffff8211171561410c5761410b6144f1565b5b8060405250919050565b600067ffffffffffffffff821115614131576141306144f1565b5b602082029050602081019050919050565b600067ffffffffffffffff82111561415d5761415c6144f1565b5b602082029050602081019050919050565b600067ffffffffffffffff821115614189576141886144f1565b5b601f19601f8301169050602081019050919050565b600067ffffffffffffffff8211156141b9576141b86144f1565b5b601f19601f8301169050602081019050919050565b6000819050602082019050919050565b600081519050919050565b600081519050919050565b600081519050919050565b6000602082019050919050565b600082825260208201905092915050565b600082825260208201905092915050565b600082825260208201905092915050565b600081905092915050565b6000614255826143a2565b9150614260836143a2565b9250827fffffffffffffffffffffffffffffffffffffffffffffffffffffffffffffffff0382111561429557614294614493565b5b828201905092915050565b60006142ab826143a2565b91506142b6836143a2565b9250817fffffffffffffffffffffffffffffffffffffffffffffffffffffffffffffffff04831182151516156142ef576142ee614493565b5b828202905092915050565b6000614305826143a2565b9150614310836143a2565b92508282101561432357614322614493565b5b828203905092915050565b600061433982614382565b9050919050565b60008115159050919050565b6000819050919050565b60007fffffffff0000000000000000000000000000000000000000000000000000000082169050919050565b600073ffffffffffffffffffffffffffffffffffffffff82169050919050565b6000819050919050565b82818337600083830152505050565b60005b838110156143d95780820151818401526020810190506143be565b838111156143e8576000848401525b50505050565b60006143f9826143a2565b9150600082141561440d5761440c614493565b5b600182039050919050565b6000600282049050600182168061443057607f821691505b60208210811415614444576144436144c2565b5b50919050565b6000614455826143a2565b91507fffffffffffffffffffffffffffffffffffffffffffffffffffffffffffffffff82141561448857614487614493565b5b600182019050919050565b7f4e487b7100000000000000000000000000000000000000000000000000000000600052601160045260246000fd5b7f4e487b7100000000000000000000000000000000000000000000000000000000600052602260045260246000fd5b7f4e487b7100000000000000000000000000000000000000000000000000000000600052604160045260246000fd5b6000601f19601f8301169050919050565b60008160e01c9050919050565b600060443d101561454e576145f1565b60046000803e61455f600051614531565b6308c379a0811461457057506145f1565b60405160043d036004823e80513d602482011167ffffffffffffffff8211171561459c575050506145f1565b808201805167ffffffffffffffff8111156145bb5750505050506145f1565b8060208301013d85018111156145d6575050505050506145f1565b6145df82614520565b60208401016040528296505050505050505b90565b6145fd8161432e565b811461460857600080fd5b50565b61461481614340565b811461461f57600080fd5b50565b61462b8161434c565b811461463657600080fd5b50565b61464281614356565b811461464d57600080fd5b50565b614659816143a2565b811461466457600080fd5b5056fea26469706673582212209bd9c3a56b900f1460df83468540470cc5a757a05357333d227758aeb554ee5764736f6c63430008000033687474703a2f2f3132372e302e302e313a393030302f6a736f6e2f7b69647d2e6a736f6e",
  "immutableReferences": {},
  "source": "// SPDX-License-Identifier: MIT\r\npragma solidity ^0.8.0;\r\n\r\n//check this if want to use preset https://ethereum.stackexchange.com/questions/98736/how-do-i-let-a-user-transfer-erc1155-token-from-my-contract-address-to-his-addre\r\n\r\n\r\nimport \"@openzeppelin/contracts/token/ERC1155/ERC1155.sol\";\r\nimport \"@openzeppelin/contracts/access/AccessControl.sol\";\r\nimport \"@openzeppelin/contracts/security/Pausable.sol\";\r\nimport \"@openzeppelin/contracts/token/ERC1155/extensions/ERC1155Burnable.sol\";\r\n\r\ncontract wizard is ERC1155, AccessControl, Pausable, ERC1155Burnable {\r\n    bytes32 public constant URI_SETTER_ROLE = keccak256(\"URI_SETTER_ROLE\");\r\n    bytes32 public constant PAUSER_ROLE = keccak256(\"PAUSER_ROLE\");\r\n    bytes32 public constant MINTER_ROLE = keccak256(\"MINTER_ROLE\");\r\n\r\n    constructor() ERC1155(\"http://127.0.0.1:9000/json/{id}.json\") {\r\n        _setupRole(DEFAULT_ADMIN_ROLE, msg.sender);\r\n        _setupRole(URI_SETTER_ROLE, msg.sender);\r\n        _setupRole(PAUSER_ROLE, msg.sender);\r\n        _setupRole(MINTER_ROLE, msg.sender);\r\n    }\r\n\r\n    function setURI(string memory newuri) public {\r\n        require(hasRole(URI_SETTER_ROLE, msg.sender));\r\n        _setURI(newuri);\r\n    }\r\n\r\n    function pause() public {\r\n        require(hasRole(PAUSER_ROLE, msg.sender));\r\n        _pause();\r\n    }\r\n\r\n    function unpause() public {\r\n        require(hasRole(PAUSER_ROLE, msg.sender));\r\n        _unpause();\r\n    }\r\n\r\n    function mint(address account, uint256 id, uint256 amount, bytes memory data)\r\n        public\r\n    {\r\n        require(hasRole(MINTER_ROLE, msg.sender));\r\n        _mint(account, id, amount, data);\r\n    }\r\n\r\n    function mintBatch(address to, uint256[] memory ids, uint256[] memory amounts, bytes memory data)\r\n        public\r\n    {\r\n        require(hasRole(MINTER_ROLE, msg.sender));\r\n        _mintBatch(to, ids, amounts, data); \r\n    }\r\n\r\n    function _beforeTokenTransfer(address operator, address from, address to, uint256[] memory ids, uint256[] memory amounts, bytes memory data)\r\n        internal\r\n        whenNotPaused\r\n        override\r\n    {\r\n        super._beforeTokenTransfer(operator, from, to, ids, amounts, data);\r\n    }\r\n\r\n    function supportsInterface(bytes4 interfaceId)\r\n        public\r\n        view\r\n        override(ERC1155, AccessControl)\r\n        returns (bool)\r\n    {\r\n        return super.supportsInterface(interfaceId);\r\n    }\r\n}\r\n",
  "sourcePath": "C:/Fincode/SmartContract/contracts/wizard.sol",
  "compiler": {
    "name": "solc",
    "version": "0.8.0+commit.c7dfd78e.Emscripten.clang"
  },
  "schemaVersion": "3.4.1",
  "updatedAt": "2021-06-09T14:25:56.825Z",
  "networkType": "ethereum",
  "devdoc": {
    "kind": "dev",
    "methods": {
      "balanceOf(address,uint256)": {
        "details": "See {IERC1155-balanceOf}. Requirements: - `account` cannot be the zero address."
      },
      "balanceOfBatch(address[],uint256[])": {
        "details": "See {IERC1155-balanceOfBatch}. Requirements: - `accounts` and `ids` must have the same length."
      },
      "getRoleAdmin(bytes32)": {
        "details": "Returns the admin role that controls `role`. See {grantRole} and {revokeRole}. To change a role's admin, use {_setRoleAdmin}."
      },
      "grantRole(bytes32,address)": {
        "details": "Grants `role` to `account`. If `account` had not been already granted `role`, emits a {RoleGranted} event. Requirements: - the caller must have ``role``'s admin role."
      },
      "hasRole(bytes32,address)": {
        "details": "Returns `true` if `account` has been granted `role`."
      },
      "isApprovedForAll(address,address)": {
        "details": "See {IERC1155-isApprovedForAll}."
      },
      "paused()": {
        "details": "Returns true if the contract is paused, and false otherwise."
      },
      "renounceRole(bytes32,address)": {
        "details": "Revokes `role` from the calling account. Roles are often managed via {grantRole} and {revokeRole}: this function's purpose is to provide a mechanism for accounts to lose their privileges if they are compromised (such as when a trusted device is misplaced). If the calling account had been granted `role`, emits a {RoleRevoked} event. Requirements: - the caller must be `account`."
      },
      "revokeRole(bytes32,address)": {
        "details": "Revokes `role` from `account`. If `account` had been granted `role`, emits a {RoleRevoked} event. Requirements: - the caller must have ``role``'s admin role."
      },
      "safeBatchTransferFrom(address,address,uint256[],uint256[],bytes)": {
        "details": "See {IERC1155-safeBatchTransferFrom}."
      },
      "safeTransferFrom(address,address,uint256,uint256,bytes)": {
        "details": "See {IERC1155-safeTransferFrom}."
      },
      "setApprovalForAll(address,bool)": {
        "details": "See {IERC1155-setApprovalForAll}."
      },
      "uri(uint256)": {
        "details": "See {IERC1155MetadataURI-uri}. This implementation returns the same URI for *all* token types. It relies on the token type ID substitution mechanism https://eips.ethereum.org/EIPS/eip-1155#metadata[defined in the EIP]. Clients calling this function must replace the `\\{id\\}` substring with the actual token type ID."
      }
    },
    "version": 1
  },
  "userdoc": {
    "kind": "user",
    "methods": {},
    "version": 1
  }
}