{
  "contractName": "SFPCODE_v1",
  "abi": [
    {
      "inputs": [],
      "stateMutability": "nonpayable",
      "type": "constructor"
    },
    {
      "anonymous": false,
      "inputs": [
        {
          "indexed": true,
          "internalType": "address",
          "name": "account",
          "type": "address"
        },
        {
          "indexed": true,
          "internalType": "address",
          "name": "operator",
          "type": "address"
        },
        {
          "indexed": false,
          "internalType": "bool",
          "name": "approved",
          "type": "bool"
        }
      ],
      "name": "ApprovalForAll",
      "type": "event"
    },
    {
      "anonymous": false,
      "inputs": [
        {
          "indexed": false,
          "internalType": "address",
          "name": "account",
          "type": "address"
        }
      ],
      "name": "Paused",
      "type": "event"
    },
    {
      "anonymous": false,
      "inputs": [
        {
          "indexed": true,
          "internalType": "bytes32",
          "name": "role",
          "type": "bytes32"
        },
        {
          "indexed": true,
          "internalType": "bytes32",
          "name": "previousAdminRole",
          "type": "bytes32"
        },
        {
          "indexed": true,
          "internalType": "bytes32",
          "name": "newAdminRole",
          "type": "bytes32"
        }
      ],
      "name": "RoleAdminChanged",
      "type": "event"
    },
    {
      "anonymous": false,
      "inputs": [
        {
          "indexed": true,
          "internalType": "bytes32",
          "name": "role",
          "type": "bytes32"
        },
        {
          "indexed": true,
          "internalType": "address",
          "name": "account",
          "type": "address"
        },
        {
          "indexed": true,
          "internalType": "address",
          "name": "sender",
          "type": "address"
        }
      ],
      "name": "RoleGranted",
      "type": "event"
    },
    {
      "anonymous": false,
      "inputs": [
        {
          "indexed": true,
          "internalType": "bytes32",
          "name": "role",
          "type": "bytes32"
        },
        {
          "indexed": true,
          "internalType": "address",
          "name": "account",
          "type": "address"
        },
        {
          "indexed": true,
          "internalType": "address",
          "name": "sender",
          "type": "address"
        }
      ],
      "name": "RoleRevoked",
      "type": "event"
    },
    {
      "anonymous": false,
      "inputs": [
        {
          "indexed": true,
          "internalType": "address",
          "name": "operator",
          "type": "address"
        },
        {
          "indexed": true,
          "internalType": "address",
          "name": "from",
          "type": "address"
        },
        {
          "indexed": true,
          "internalType": "address",
          "name": "to",
          "type": "address"
        },
        {
          "indexed": false,
          "internalType": "uint256[]",
          "name": "ids",
          "type": "uint256[]"
        },
        {
          "indexed": false,
          "internalType": "uint256[]",
          "name": "values",
          "type": "uint256[]"
        }
      ],
      "name": "TransferBatch",
      "type": "event"
    },
    {
      "anonymous": false,
      "inputs": [
        {
          "indexed": true,
          "internalType": "address",
          "name": "operator",
          "type": "address"
        },
        {
          "indexed": true,
          "internalType": "address",
          "name": "from",
          "type": "address"
        },
        {
          "indexed": true,
          "internalType": "address",
          "name": "to",
          "type": "address"
        },
        {
          "indexed": false,
          "internalType": "uint256",
          "name": "id",
          "type": "uint256"
        },
        {
          "indexed": false,
          "internalType": "uint256",
          "name": "value",
          "type": "uint256"
        }
      ],
      "name": "TransferSingle",
      "type": "event"
    },
    {
      "anonymous": false,
      "inputs": [
        {
          "indexed": false,
          "internalType": "string",
          "name": "value",
          "type": "string"
        },
        {
          "indexed": true,
          "internalType": "uint256",
          "name": "id",
          "type": "uint256"
        }
      ],
      "name": "URI",
      "type": "event"
    },
    {
      "anonymous": false,
      "inputs": [
        {
          "indexed": false,
          "internalType": "address",
          "name": "account",
          "type": "address"
        }
      ],
      "name": "Unpaused",
      "type": "event"
    },
    {
      "inputs": [],
      "name": "DEFAULT_ADMIN_ROLE",
      "outputs": [
        {
          "internalType": "bytes32",
          "name": "",
          "type": "bytes32"
        }
      ],
      "stateMutability": "view",
      "type": "function"
    },
    {
      "inputs": [],
      "name": "MINTER_ROLE",
      "outputs": [
        {
          "internalType": "bytes32",
          "name": "",
          "type": "bytes32"
        }
      ],
      "stateMutability": "view",
      "type": "function"
    },
    {
      "inputs": [],
      "name": "PAUSER_ROLE",
      "outputs": [
        {
          "internalType": "bytes32",
          "name": "",
          "type": "bytes32"
        }
      ],
      "stateMutability": "view",
      "type": "function"
    },
    {
      "inputs": [],
      "name": "URI_SETTER_ROLE",
      "outputs": [
        {
          "internalType": "bytes32",
          "name": "",
          "type": "bytes32"
        }
      ],
      "stateMutability": "view",
      "type": "function"
    },
    {
      "inputs": [
        {
          "internalType": "address",
          "name": "account",
          "type": "address"
        },
        {
          "internalType": "uint256",
          "name": "id",
          "type": "uint256"
        }
      ],
      "name": "balanceOf",
      "outputs": [
        {
          "internalType": "uint256",
          "name": "",
          "type": "uint256"
        }
      ],
      "stateMutability": "view",
      "type": "function"
    },
    {
      "inputs": [
        {
          "internalType": "address[]",
          "name": "accounts",
          "type": "address[]"
        },
        {
          "internalType": "uint256[]",
          "name": "ids",
          "type": "uint256[]"
        }
      ],
      "name": "balanceOfBatch",
      "outputs": [
        {
          "internalType": "uint256[]",
          "name": "",
          "type": "uint256[]"
        }
      ],
      "stateMutability": "view",
      "type": "function"
    },
    {
      "inputs": [
        {
          "internalType": "address",
          "name": "account",
          "type": "address"
        },
        {
          "internalType": "uint256",
          "name": "id",
          "type": "uint256"
        },
        {
          "internalType": "uint256",
          "name": "value",
          "type": "uint256"
        }
      ],
      "name": "burn",
      "outputs": [],
      "stateMutability": "nonpayable",
      "type": "function"
    },
    {
      "inputs": [
        {
          "internalType": "address",
          "name": "account",
          "type": "address"
        },
        {
          "internalType": "uint256[]",
          "name": "ids",
          "type": "uint256[]"
        },
        {
          "internalType": "uint256[]",
          "name": "values",
          "type": "uint256[]"
        }
      ],
      "name": "burnBatch",
      "outputs": [],
      "stateMutability": "nonpayable",
      "type": "function"
    },
    {
      "inputs": [
        {
          "internalType": "bytes32",
          "name": "role",
          "type": "bytes32"
        }
      ],
      "name": "getRoleAdmin",
      "outputs": [
        {
          "internalType": "bytes32",
          "name": "",
          "type": "bytes32"
        }
      ],
      "stateMutability": "view",
      "type": "function"
    },
    {
      "inputs": [
        {
          "internalType": "bytes32",
          "name": "role",
          "type": "bytes32"
        },
        {
          "internalType": "address",
          "name": "account",
          "type": "address"
        }
      ],
      "name": "grantRole",
      "outputs": [],
      "stateMutability": "nonpayable",
      "type": "function"
    },
    {
      "inputs": [
        {
          "internalType": "bytes32",
          "name": "role",
          "type": "bytes32"
        },
        {
          "internalType": "address",
          "name": "account",
          "type": "address"
        }
      ],
      "name": "hasRole",
      "outputs": [
        {
          "internalType": "bool",
          "name": "",
          "type": "bool"
        }
      ],
      "stateMutability": "view",
      "type": "function"
    },
    {
      "inputs": [
        {
          "internalType": "address",
          "name": "account",
          "type": "address"
        },
        {
          "internalType": "address",
          "name": "operator",
          "type": "address"
        }
      ],
      "name": "isApprovedForAll",
      "outputs": [
        {
          "internalType": "bool",
          "name": "",
          "type": "bool"
        }
      ],
      "stateMutability": "view",
      "type": "function"
    },
    {
      "inputs": [],
      "name": "paused",
      "outputs": [
        {
          "internalType": "bool",
          "name": "",
          "type": "bool"
        }
      ],
      "stateMutability": "view",
      "type": "function"
    },
    {
      "inputs": [
        {
          "internalType": "bytes32",
          "name": "role",
          "type": "bytes32"
        },
        {
          "internalType": "address",
          "name": "account",
          "type": "address"
        }
      ],
      "name": "renounceRole",
      "outputs": [],
      "stateMutability": "nonpayable",
      "type": "function"
    },
    {
      "inputs": [
        {
          "internalType": "bytes32",
          "name": "role",
          "type": "bytes32"
        },
        {
          "internalType": "address",
          "name": "account",
          "type": "address"
        }
      ],
      "name": "revokeRole",
      "outputs": [],
      "stateMutability": "nonpayable",
      "type": "function"
    },
    {
      "inputs": [
        {
          "internalType": "address",
          "name": "from",
          "type": "address"
        },
        {
          "internalType": "address",
          "name": "to",
          "type": "address"
        },
        {
          "internalType": "uint256[]",
          "name": "ids",
          "type": "uint256[]"
        },
        {
          "internalType": "uint256[]",
          "name": "amounts",
          "type": "uint256[]"
        },
        {
          "internalType": "bytes",
          "name": "data",
          "type": "bytes"
        }
      ],
      "name": "safeBatchTransferFrom",
      "outputs": [],
      "stateMutability": "nonpayable",
      "type": "function"
    },
    {
      "inputs": [
        {
          "internalType": "address",
          "name": "from",
          "type": "address"
        },
        {
          "internalType": "address",
          "name": "to",
          "type": "address"
        },
        {
          "internalType": "uint256",
          "name": "id",
          "type": "uint256"
        },
        {
          "internalType": "uint256",
          "name": "amount",
          "type": "uint256"
        },
        {
          "internalType": "bytes",
          "name": "data",
          "type": "bytes"
        }
      ],
      "name": "safeTransferFrom",
      "outputs": [],
      "stateMutability": "nonpayable",
      "type": "function"
    },
    {
      "inputs": [
        {
          "internalType": "address",
          "name": "operator",
          "type": "address"
        },
        {
          "internalType": "bool",
          "name": "approved",
          "type": "bool"
        }
      ],
      "name": "setApprovalForAll",
      "outputs": [],
      "stateMutability": "nonpayable",
      "type": "function"
    },
    {
      "inputs": [
        {
          "internalType": "uint256",
          "name": "",
          "type": "uint256"
        }
      ],
      "name": "uri",
      "outputs": [
        {
          "internalType": "string",
          "name": "",
          "type": "string"
        }
      ],
      "stateMutability": "view",
      "type": "function"
    },
    {
      "inputs": [
        {
          "internalType": "uint256",
          "name": "id",
          "type": "uint256"
        }
      ],
      "name": "checkExistance",
      "outputs": [
        {
          "internalType": "uint256",
          "name": "",
          "type": "uint256"
        }
      ],
      "stateMutability": "view",
      "type": "function"
    },
    {
      "inputs": [
        {
          "internalType": "uint256",
          "name": "id",
          "type": "uint256"
        }
      ],
      "name": "addExistance",
      "outputs": [],
      "stateMutability": "nonpayable",
      "type": "function"
    },
    {
      "inputs": [
        {
          "internalType": "uint256",
          "name": "id",
          "type": "uint256"
        }
      ],
      "name": "removeExistance",
      "outputs": [],
      "stateMutability": "nonpayable",
      "type": "function"
    },
    {
      "inputs": [
        {
          "internalType": "string",
          "name": "newuri",
          "type": "string"
        }
      ],
      "name": "setURI",
      "outputs": [],
      "stateMutability": "nonpayable",
      "type": "function"
    },
    {
      "inputs": [],
      "name": "pause",
      "outputs": [],
      "stateMutability": "nonpayable",
      "type": "function"
    },
    {
      "inputs": [],
      "name": "unpause",
      "outputs": [],
      "stateMutability": "nonpayable",
      "type": "function"
    },
    {
      "inputs": [
        {
          "internalType": "address",
          "name": "account",
          "type": "address"
        },
        {
          "internalType": "uint256",
          "name": "id",
          "type": "uint256"
        },
        {
          "internalType": "uint256",
          "name": "amount",
          "type": "uint256"
        },
        {
          "internalType": "bytes",
          "name": "data",
          "type": "bytes"
        }
      ],
      "name": "mint",
      "outputs": [],
      "stateMutability": "nonpayable",
      "type": "function"
    },
    {
      "inputs": [
        {
          "internalType": "address",
          "name": "to",
          "type": "address"
        },
        {
          "internalType": "uint256[]",
          "name": "ids",
          "type": "uint256[]"
        },
        {
          "internalType": "uint256[]",
          "name": "amounts",
          "type": "uint256[]"
        },
        {
          "internalType": "bytes",
          "name": "data",
          "type": "bytes"
        }
      ],
      "name": "mintBatch",
      "outputs": [],
      "stateMutability": "nonpayable",
      "type": "function"
    },
    {
      "inputs": [
        {
          "internalType": "bytes4",
          "name": "interfaceId",
          "type": "bytes4"
        }
      ],
      "name": "supportsInterface",
      "outputs": [
        {
          "internalType": "bool",
          "name": "",
          "type": "bool"
        }
      ],
      "stateMutability": "view",
      "type": "function"
    }
  ],
  "bytecode": "0x60806040523480156200001157600080fd5b5060405180606001604052806024815260200162004fd0602491396200003d816200010a60201b60201c565b506000600560006101000a81548160ff0219169083151502179055506200006e6000801b336200012660201b60201c565b620000a07f7804d923f43a17d325d77e781528e0793b2edd9890ab45fc64efd7b4b427744c336200012660201b60201c565b620000d27f65d7a28e3265b37a6474929f336521b332c1681b933f6cb9f3376673440d862a336200012660201b60201c565b620001047f9f2df0fed2c77648de5860a4cc508cd0818c85b8b8a1ab4ceeef8d981c8956a6336200012660201b60201c565b620003b6565b806003908051906020019062000122929190620002a1565b5050565b6200013882826200013c60201b60201c565b5050565b6200014e82826200022e60201b60201c565b6200022a5760016004600084815260200190815260200160002060000160008373ffffffffffffffffffffffffffffffffffffffff1673ffffffffffffffffffffffffffffffffffffffff16815260200190815260200160002060006101000a81548160ff021916908315150217905550620001cf6200029960201b60201c565b73ffffffffffffffffffffffffffffffffffffffff168173ffffffffffffffffffffffffffffffffffffffff16837f2f8788117e7eff1d82e926ec794901d17c78024a50270940304540a733656f0d60405160405180910390a45b5050565b60006004600084815260200190815260200160002060000160008373ffffffffffffffffffffffffffffffffffffffff1673ffffffffffffffffffffffffffffffffffffffff16815260200190815260200160002060009054906101000a900460ff16905092915050565b600033905090565b828054620002af9062000351565b90600052602060002090601f016020900481019282620002d357600085556200031f565b82601f10620002ee57805160ff19168380011785556200031f565b828001600101855582156200031f579182015b828111156200031e57825182559160200191906001019062000301565b5b5090506200032e919062000332565b5090565b5b808211156200034d57600081600090555060010162000333565b5090565b600060028204905060018216806200036a57607f821691505b6020821081141562000381576200038062000387565b5b50919050565b7f4e487b7100000000000000000000000000000000000000000000000000000000600052602260045260246000fd5b614c0a80620003c66000396000f3fe608060405234801561001057600080fd5b50600436106101c35760003560e01c80636b20c454116100f9578063d539139311610097578063e63ab1e911610071578063e63ab1e9146104d8578063e985e9c5146104f6578063f242432a14610526578063f5298aca14610542576101c3565b8063d53913931461046e578063d547741f1461048c578063db641cd5146104a8576101c3565b80638456cb59116100d35780638456cb59146103fa57806391d1485414610404578063a217fddf14610434578063a22cb46514610452576101c3565b80636b20c454146103a4578063731133e9146103c05780637f345710146103dc576101c3565b80632f2ff15d116101665780633f4ba83a116101405780633f4ba83a146103305780634b8028701461033a5780634e1273f4146103565780635c975abb14610386576101c3565b80632f2ff15d146102dc578063326b7257146102f857806336568abe14610314576101c3565b80630e89341c116101a25780630e89341c146102445780631f7fdffa14610274578063248a9ca3146102905780632eb2c2d6146102c0576101c3565b8062fdd58e146101c857806301ffc9a7146101f857806302fe530514610228575b600080fd5b6101e260048036038101906101dd91906135e2565b61055e565b6040516101ef919061409d565b60405180910390f35b610212600480360381019061020d91906137b9565b610627565b60405161021f9190613e05565b60405180910390f35b610242600480360381019061023d919061380b565b610639565b005b61025e6004803603810190610259919061384c565b610678565b60405161026b9190613e3b565b60405180910390f35b61028e600480360381019061028991906134fb565b61070c565b005b6102aa60048036038101906102a59190613754565b610751565b6040516102b79190613e20565b60405180910390f35b6102da60048036038101906102d5919061332e565b610771565b005b6102f660048036038101906102f1919061377d565b610b67565b005b610312600480360381019061030d919061384c565b610b90565b005b61032e6004803603810190610329919061377d565b610bb2565b005b610338610c35565b005b610354600480360381019061034f919061384c565b610c72565b005b610370600480360381019061036b91906136e8565b610c94565b60405161037d9190613dac565b60405180910390f35b61038e610e45565b60405161039b9190613e05565b60405180910390f35b6103be60048036038101906103b9919061347c565b610e5c565b005b6103da60048036038101906103d5919061366d565b610ef9565b005b6103e4610f3e565b6040516103f19190613e20565b60405180910390f35b610402610f62565b005b61041e6004803603810190610419919061377d565b610f9f565b60405161042b9190613e05565b60405180910390f35b61043c61100a565b6040516104499190613e20565b60405180910390f35b61046c600480360381019061046791906135a6565b611011565b005b610476611192565b6040516104839190613e20565b60405180910390f35b6104a660048036038101906104a1919061377d565b6111b6565b005b6104c260048036038101906104bd919061384c565b6111df565b6040516104cf919061409d565b60405180910390f35b6104e06111f1565b6040516104ed9190613e20565b60405180910390f35b610510600480360381019061050b91906132f2565b611215565b60405161051d9190613e05565b60405180910390f35b610540600480360381019061053b91906133ed565b6112a9565b005b61055c6004803603810190610557919061361e565b6115c1565b005b60008073ffffffffffffffffffffffffffffffffffffffff168373ffffffffffffffffffffffffffffffffffffffff1614156105cf576040517f08c379a00000000000000000000000000000000000000000000000000000000081526004016105c690613edd565b60405180910390fd5b60008083815260200190815260200160002060008473ffffffffffffffffffffffffffffffffffffffff1673ffffffffffffffffffffffffffffffffffffffff16815260200190815260200160002054905092915050565b60006106328261165e565b9050919050565b6106637f7804d923f43a17d325d77e781528e0793b2edd9890ab45fc64efd7b4b427744c33610f9f565b61066c57600080fd5b610675816116d8565b50565b6060600380546106879061440a565b80601f01602080910402602001604051908101604052809291908181526020018280546106b39061440a565b80156107005780601f106106d557610100808354040283529160200191610700565b820191906000526020600020905b8154815290600101906020018083116106e357829003601f168201915b50505050509050919050565b6107367f9f2df0fed2c77648de5860a4cc508cd0818c85b8b8a1ab4ceeef8d981c8956a633610f9f565b61073f57600080fd5b61074b848484846116f2565b50505050565b600060046000838152602001908152602001600020600101549050919050565b81518351146107b5576040517f08c379a00000000000000000000000000000000000000000000000000000000081526004016107ac9061403d565b60405180910390fd5b600073ffffffffffffffffffffffffffffffffffffffff168473ffffffffffffffffffffffffffffffffffffffff161415610825576040517f08c379a000000000000000000000000000000000000000000000000000000000815260040161081c90613f7d565b60405180910390fd5b61082d611ac4565b73ffffffffffffffffffffffffffffffffffffffff168573ffffffffffffffffffffffffffffffffffffffff16148061087357506108728561086d611ac4565b611215565b5b6108b2576040517f08c379a00000000000000000000000000000000000000000000000000000000081526004016108a990613f9d565b60405180910390fd5b60006108bc611ac4565b90506108cc818787878787611acc565b60005b8451811015610ad2576000858281518110610913577f4e487b7100000000000000000000000000000000000000000000000000000000600052603260045260246000fd5b602002602001015190506000858381518110610958577f4e487b7100000000000000000000000000000000000000000000000000000000600052603260045260246000fd5b60200260200101519050600080600084815260200190815260200160002060008b73ffffffffffffffffffffffffffffffffffffffff1673ffffffffffffffffffffffffffffffffffffffff168152602001908152602001600020549050818110156109f9576040517f08c379a00000000000000000000000000000000000000000000000000000000081526004016109f090613fdd565b60405180910390fd5b8181610a0591906142ec565b60008085815260200190815260200160002060008c73ffffffffffffffffffffffffffffffffffffffff1673ffffffffffffffffffffffffffffffffffffffff168152602001908152602001600020819055508160008085815260200190815260200160002060008b73ffffffffffffffffffffffffffffffffffffffff1673ffffffffffffffffffffffffffffffffffffffff1681526020019081526020016000206000828254610ab7919061423c565b9250508190555050505080610acb9061446d565b90506108cf565b508473ffffffffffffffffffffffffffffffffffffffff168673ffffffffffffffffffffffffffffffffffffffff168273ffffffffffffffffffffffffffffffffffffffff167f4a39dc06d4c0dbc64b70af90fd698a233a518aa5d07e595d983b8c0526c8f7fb8787604051610b49929190613dce565b60405180910390a4610b5f818787878787611b2a565b505050505050565b610b7082610751565b610b8181610b7c611ac4565b611d11565b610b8b8383611dae565b505050565b610b9d6000801b33610f9f565b610ba657600080fd5b610baf81611e8f565b50565b610bba611ac4565b73ffffffffffffffffffffffffffffffffffffffff168173ffffffffffffffffffffffffffffffffffffffff1614610c27576040517f08c379a0000000000000000000000000000000000000000000000000000000008152600401610c1e9061407d565b60405180910390fd5b610c318282611eab565b5050565b610c5f7f65d7a28e3265b37a6474929f336521b332c1681b933f6cb9f3376673440d862a33610f9f565b610c6857600080fd5b610c70611f8d565b565b610c7f6000801b33610f9f565b610c8857600080fd5b610c918161202f565b50565b60608151835114610cda576040517f08c379a0000000000000000000000000000000000000000000000000000000008152600401610cd19061401d565b60405180910390fd5b6000835167ffffffffffffffff811115610d1d577f4e487b7100000000000000000000000000000000000000000000000000000000600052604160045260246000fd5b604051908082528060200260200182016040528015610d4b5781602001602082028036833780820191505090505b50905060005b8451811015610e3a57610de4858281518110610d96577f4e487b7100000000000000000000000000000000000000000000000000000000600052603260045260246000fd5b6020026020010151858381518110610dd7577f4e487b7100000000000000000000000000000000000000000000000000000000600052603260045260246000fd5b602002602001015161055e565b828281518110610e1d577f4e487b7100000000000000000000000000000000000000000000000000000000600052603260045260246000fd5b60200260200101818152505080610e339061446d565b9050610d51565b508091505092915050565b6000600560009054906101000a900460ff16905090565b610e64611ac4565b73ffffffffffffffffffffffffffffffffffffffff168373ffffffffffffffffffffffffffffffffffffffff161480610eaa5750610ea983610ea4611ac4565b611215565b5b610ee9576040517f08c379a0000000000000000000000000000000000000000000000000000000008152600401610ee090613f3d565b60405180910390fd5b610ef483838361204b565b505050565b610f237f9f2df0fed2c77648de5860a4cc508cd0818c85b8b8a1ab4ceeef8d981c8956a633610f9f565b610f2c57600080fd5b610f388484848461235a565b50505050565b7f7804d923f43a17d325d77e781528e0793b2edd9890ab45fc64efd7b4b427744c81565b610f8c7f65d7a28e3265b37a6474929f336521b332c1681b933f6cb9f3376673440d862a33610f9f565b610f9557600080fd5b610f9d6125d8565b565b60006004600084815260200190815260200160002060000160008373ffffffffffffffffffffffffffffffffffffffff1673ffffffffffffffffffffffffffffffffffffffff16815260200190815260200160002060009054906101000a900460ff16905092915050565b6000801b81565b8173ffffffffffffffffffffffffffffffffffffffff16611030611ac4565b73ffffffffffffffffffffffffffffffffffffffff161415611087576040517f08c379a000000000000000000000000000000000000000000000000000000000815260040161107e90613ffd565b60405180910390fd5b8060016000611094611ac4565b73ffffffffffffffffffffffffffffffffffffffff1673ffffffffffffffffffffffffffffffffffffffff16815260200190815260200160002060008473ffffffffffffffffffffffffffffffffffffffff1673ffffffffffffffffffffffffffffffffffffffff16815260200190815260200160002060006101000a81548160ff0219169083151502179055508173ffffffffffffffffffffffffffffffffffffffff16611141611ac4565b73ffffffffffffffffffffffffffffffffffffffff167f17307eab39ab6107e8899845ad3d59bd9653f200f220920489ca2b5937696c31836040516111869190613e05565b60405180910390a35050565b7f9f2df0fed2c77648de5860a4cc508cd0818c85b8b8a1ab4ceeef8d981c8956a681565b6111bf82610751565b6111d0816111cb611ac4565b611d11565b6111da8383611eab565b505050565b60006111ea8261267b565b9050919050565b7f65d7a28e3265b37a6474929f336521b332c1681b933f6cb9f3376673440d862a81565b6000600160008473ffffffffffffffffffffffffffffffffffffffff1673ffffffffffffffffffffffffffffffffffffffff16815260200190815260200160002060008373ffffffffffffffffffffffffffffffffffffffff1673ffffffffffffffffffffffffffffffffffffffff16815260200190815260200160002060009054906101000a900460ff16905092915050565b600073ffffffffffffffffffffffffffffffffffffffff168473ffffffffffffffffffffffffffffffffffffffff161415611319576040517f08c379a000000000000000000000000000000000000000000000000000000000815260040161131090613f7d565b60405180910390fd5b611321611ac4565b73ffffffffffffffffffffffffffffffffffffffff168573ffffffffffffffffffffffffffffffffffffffff161480611367575061136685611361611ac4565b611215565b5b6113a6576040517f08c379a000000000000000000000000000000000000000000000000000000000815260040161139d90613f3d565b60405180910390fd5b60006113b0611ac4565b90506113d08187876113c188612698565b6113ca88612698565b87611acc565b600080600086815260200190815260200160002060008873ffffffffffffffffffffffffffffffffffffffff1673ffffffffffffffffffffffffffffffffffffffff16815260200190815260200160002054905083811015611467576040517f08c379a000000000000000000000000000000000000000000000000000000000815260040161145e90613fdd565b60405180910390fd5b838161147391906142ec565b60008087815260200190815260200160002060008973ffffffffffffffffffffffffffffffffffffffff1673ffffffffffffffffffffffffffffffffffffffff168152602001908152602001600020819055508360008087815260200190815260200160002060008873ffffffffffffffffffffffffffffffffffffffff1673ffffffffffffffffffffffffffffffffffffffff1681526020019081526020016000206000828254611525919061423c565b925050819055508573ffffffffffffffffffffffffffffffffffffffff168773ffffffffffffffffffffffffffffffffffffffff168373ffffffffffffffffffffffffffffffffffffffff167fc3d58168c5ae7397731d063d5bbf3d657854427343f4c083240f7aacaa2d0f6288886040516115a29291906140b8565b60405180910390a46115b882888888888861275e565b50505050505050565b6115c9611ac4565b73ffffffffffffffffffffffffffffffffffffffff168373ffffffffffffffffffffffffffffffffffffffff16148061160f575061160e83611609611ac4565b611215565b5b61164e576040517f08c379a000000000000000000000000000000000000000000000000000000000815260040161164590613f3d565b60405180910390fd5b611659838383612945565b505050565b60007f7965db0b000000000000000000000000000000000000000000000000000000007bffffffffffffffffffffffffffffffffffffffffffffffffffffffff1916827bffffffffffffffffffffffffffffffffffffffffffffffffffffffff191614806116d157506116d082612b74565b5b9050919050565b80600390805190602001906116ee929190612fd5565b5050565b600073ffffffffffffffffffffffffffffffffffffffff168473ffffffffffffffffffffffffffffffffffffffff161415611762576040517f08c379a00000000000000000000000000000000000000000000000000000000081526004016117599061405d565b60405180910390fd5b81518351146117a6576040517f08c379a000000000000000000000000000000000000000000000000000000000815260040161179d9061403d565b60405180910390fd5b60006117b0611ac4565b905060018060008773ffffffffffffffffffffffffffffffffffffffff1673ffffffffffffffffffffffffffffffffffffffff16815260200190815260200160002060008373ffffffffffffffffffffffffffffffffffffffff1673ffffffffffffffffffffffffffffffffffffffff16815260200190815260200160002060006101000a81548160ff02191690831515021790555061185581600087878787611acc565b60005b8451811015611a2e5760006118ac86838151811061189f577f4e487b7100000000000000000000000000000000000000000000000000000000600052603260045260246000fd5b602002602001015161267b565b146118ec576040517f08c379a00000000000000000000000000000000000000000000000000000000081526004016118e390613efd565b60405180910390fd5b838181518110611925577f4e487b7100000000000000000000000000000000000000000000000000000000600052603260045260246000fd5b6020026020010151600080878481518110611969577f4e487b7100000000000000000000000000000000000000000000000000000000600052603260045260246000fd5b6020026020010151815260200190815260200160002060008873ffffffffffffffffffffffffffffffffffffffff1673ffffffffffffffffffffffffffffffffffffffff16815260200190815260200160002060008282546119cb919061423c565b92505081905550611a1b858281518110611a0e577f4e487b7100000000000000000000000000000000000000000000000000000000600052603260045260246000fd5b6020026020010151611e8f565b8080611a269061446d565b915050611858565b508473ffffffffffffffffffffffffffffffffffffffff16600073ffffffffffffffffffffffffffffffffffffffff168273ffffffffffffffffffffffffffffffffffffffff167f4a39dc06d4c0dbc64b70af90fd698a233a518aa5d07e595d983b8c0526c8f7fb8787604051611aa6929190613dce565b60405180910390a4611abd81600087878787611b2a565b5050505050565b600033905090565b611ad4610e45565b15611b14576040517f08c379a0000000000000000000000000000000000000000000000000000000008152600401611b0b90613f5d565b60405180910390fd5b611b22868686868686612c56565b505050505050565b611b498473ffffffffffffffffffffffffffffffffffffffff16612c5e565b15611d09578373ffffffffffffffffffffffffffffffffffffffff1663bc197c8187878686866040518663ffffffff1660e01b8152600401611b8f959493929190613cea565b602060405180830381600087803b158015611ba957600080fd5b505af1925050508015611bda57506040513d601f19601f82011682018060405250810190611bd791906137e2565b60015b611c8057611be6614543565b806308c379a01415611c435750611bfb614acb565b80611c065750611c45565b806040517f08c379a0000000000000000000000000000000000000000000000000000000008152600401611c3a9190613e3b565b60405180910390fd5b505b6040517f08c379a0000000000000000000000000000000000000000000000000000000008152600401611c7790613e5d565b60405180910390fd5b63bc197c8160e01b7bffffffffffffffffffffffffffffffffffffffffffffffffffffffff1916817bffffffffffffffffffffffffffffffffffffffffffffffffffffffff191614611d07576040517f08c379a0000000000000000000000000000000000000000000000000000000008152600401611cfe90613e9d565b60405180910390fd5b505b505050505050565b611d1b8282610f9f565b611daa57611d408173ffffffffffffffffffffffffffffffffffffffff166014612c71565b611d4e8360001c6020612c71565b604051602001611d5f929190613c95565b6040516020818303038152906040526040517f08c379a0000000000000000000000000000000000000000000000000000000008152600401611da19190613e3b565b60405180910390fd5b5050565b611db88282610f9f565b611e8b5760016004600084815260200190815260200160002060000160008373ffffffffffffffffffffffffffffffffffffffff1673ffffffffffffffffffffffffffffffffffffffff16815260200190815260200160002060006101000a81548160ff021916908315150217905550611e30611ac4565b73ffffffffffffffffffffffffffffffffffffffff168173ffffffffffffffffffffffffffffffffffffffff16837f2f8788117e7eff1d82e926ec794901d17c78024a50270940304540a733656f0d60405160405180910390a45b5050565b6001600260008381526020019081526020016000208190555050565b611eb58282610f9f565b15611f895760006004600084815260200190815260200160002060000160008373ffffffffffffffffffffffffffffffffffffffff1673ffffffffffffffffffffffffffffffffffffffff16815260200190815260200160002060006101000a81548160ff021916908315150217905550611f2e611ac4565b73ffffffffffffffffffffffffffffffffffffffff168173ffffffffffffffffffffffffffffffffffffffff16837ff6391f5c32d9c69d2a47ea670b442974b53935d1edc7fd64eb21e047a839171b60405160405180910390a45b5050565b611f95610e45565b611fd4576040517f08c379a0000000000000000000000000000000000000000000000000000000008152600401611fcb90613ebd565b60405180910390fd5b6000600560006101000a81548160ff0219169083151502179055507f5db9ee0a495bf2e6ff9c91a7834c1ba4fdd244a5e8aa4e537bd38aeae4b073aa612018611ac4565b6040516120259190613ccf565b60405180910390a1565b6000600260008381526020019081526020016000208190555050565b600073ffffffffffffffffffffffffffffffffffffffff168373ffffffffffffffffffffffffffffffffffffffff1614156120bb576040517f08c379a00000000000000000000000000000000000000000000000000000000081526004016120b290613fbd565b60405180910390fd5b80518251146120ff576040517f08c379a00000000000000000000000000000000000000000000000000000000081526004016120f69061403d565b60405180910390fd5b6000612109611ac4565b905061212981856000868660405180602001604052806000815250611acc565b60005b83518110156122d4576000848281518110612170577f4e487b7100000000000000000000000000000000000000000000000000000000600052603260045260246000fd5b6020026020010151905060008483815181106121b5577f4e487b7100000000000000000000000000000000000000000000000000000000600052603260045260246000fd5b60200260200101519050600080600084815260200190815260200160002060008973ffffffffffffffffffffffffffffffffffffffff1673ffffffffffffffffffffffffffffffffffffffff16815260200190815260200160002054905081811015612256576040517f08c379a000000000000000000000000000000000000000000000000000000000815260040161224d90613f1d565b60405180910390fd5b818161226291906142ec565b60008085815260200190815260200160002060008a73ffffffffffffffffffffffffffffffffffffffff1673ffffffffffffffffffffffffffffffffffffffff168152602001908152602001600020819055506122be8361202f565b50505080806122cc9061446d565b91505061212c565b50600073ffffffffffffffffffffffffffffffffffffffff168473ffffffffffffffffffffffffffffffffffffffff168273ffffffffffffffffffffffffffffffffffffffff167f4a39dc06d4c0dbc64b70af90fd698a233a518aa5d07e595d983b8c0526c8f7fb868660405161234c929190613dce565b60405180910390a450505050565b600073ffffffffffffffffffffffffffffffffffffffff168473ffffffffffffffffffffffffffffffffffffffff1614156123ca576040517f08c379a00000000000000000000000000000000000000000000000000000000081526004016123c19061405d565b60405180910390fd5b60006123d58461267b565b14612415576040517f08c379a000000000000000000000000000000000000000000000000000000000815260040161240c90613efd565b60405180910390fd5b600061241f611ac4565b905060018060008773ffffffffffffffffffffffffffffffffffffffff1673ffffffffffffffffffffffffffffffffffffffff16815260200190815260200160002060008373ffffffffffffffffffffffffffffffffffffffff1673ffffffffffffffffffffffffffffffffffffffff16815260200190815260200160002060006101000a81548160ff0219169083151502179055506124d4816000876124c588612698565b6124ce88612698565b87611acc565b8260008086815260200190815260200160002060008773ffffffffffffffffffffffffffffffffffffffff1673ffffffffffffffffffffffffffffffffffffffff1681526020019081526020016000206000828254612533919061423c565b9250508190555061254384611e8f565b8473ffffffffffffffffffffffffffffffffffffffff16600073ffffffffffffffffffffffffffffffffffffffff168273ffffffffffffffffffffffffffffffffffffffff167fc3d58168c5ae7397731d063d5bbf3d657854427343f4c083240f7aacaa2d0f6287876040516125ba9291906140b8565b60405180910390a46125d18160008787878761275e565b5050505050565b6125e0610e45565b15612620576040517f08c379a000000000000000000000000000000000000000000000000000000000815260040161261790613f5d565b60405180910390fd5b6001600560006101000a81548160ff0219169083151502179055507f62e78cea01bee320cd4e420270b5ea74000d11b0c9f74754ebdbfc544b05a258612664611ac4565b6040516126719190613ccf565b60405180910390a1565b600060026000838152602001908152602001600020549050919050565b60606000600167ffffffffffffffff8111156126dd577f4e487b7100000000000000000000000000000000000000000000000000000000600052604160045260246000fd5b60405190808252806020026020018201604052801561270b5781602001602082028036833780820191505090505b5090508281600081518110612749577f4e487b7100000000000000000000000000000000000000000000000000000000600052603260045260246000fd5b60200260200101818152505080915050919050565b61277d8473ffffffffffffffffffffffffffffffffffffffff16612c5e565b1561293d578373ffffffffffffffffffffffffffffffffffffffff1663f23a6e6187878686866040518663ffffffff1660e01b81526004016127c3959493929190613d52565b602060405180830381600087803b1580156127dd57600080fd5b505af192505050801561280e57506040513d601f19601f8201168201806040525081019061280b91906137e2565b60015b6128b45761281a614543565b806308c379a01415612877575061282f614acb565b8061283a5750612879565b806040517f08c379a000000000000000000000000000000000000000000000000000000000815260040161286e9190613e3b565b60405180910390fd5b505b6040517f08c379a00000000000000000000000000000000000000000000000000000000081526004016128ab90613e5d565b60405180910390fd5b63f23a6e6160e01b7bffffffffffffffffffffffffffffffffffffffffffffffffffffffff1916817bffffffffffffffffffffffffffffffffffffffffffffffffffffffff19161461293b576040517f08c379a000000000000000000000000000000000000000000000000000000000815260040161293290613e9d565b60405180910390fd5b505b505050505050565b600073ffffffffffffffffffffffffffffffffffffffff168373ffffffffffffffffffffffffffffffffffffffff1614156129b5576040517f08c379a00000000000000000000000000000000000000000000000000000000081526004016129ac90613fbd565b60405180910390fd5b60006129bf611ac4565b90506129ef818560006129d187612698565b6129da87612698565b60405180602001604052806000815250611acc565b600080600085815260200190815260200160002060008673ffffffffffffffffffffffffffffffffffffffff1673ffffffffffffffffffffffffffffffffffffffff16815260200190815260200160002054905082811015612a86576040517f08c379a0000000000000000000000000000000000000000000000000000000008152600401612a7d90613f1d565b60405180910390fd5b8281612a9291906142ec565b60008086815260200190815260200160002060008773ffffffffffffffffffffffffffffffffffffffff1673ffffffffffffffffffffffffffffffffffffffff16815260200190815260200160002081905550612aee8461202f565b600073ffffffffffffffffffffffffffffffffffffffff168573ffffffffffffffffffffffffffffffffffffffff168373ffffffffffffffffffffffffffffffffffffffff167fc3d58168c5ae7397731d063d5bbf3d657854427343f4c083240f7aacaa2d0f628787604051612b659291906140b8565b60405180910390a45050505050565b60007fd9b67a26000000000000000000000000000000000000000000000000000000007bffffffffffffffffffffffffffffffffffffffffffffffffffffffff1916827bffffffffffffffffffffffffffffffffffffffffffffffffffffffff19161480612c3f57507f0e89341c000000000000000000000000000000000000000000000000000000007bffffffffffffffffffffffffffffffffffffffffffffffffffffffff1916827bffffffffffffffffffffffffffffffffffffffffffffffffffffffff1916145b80612c4f5750612c4e82612f6b565b5b9050919050565b505050505050565b600080823b905060008111915050919050565b606060006002836002612c849190614292565b612c8e919061423c565b67ffffffffffffffff811115612ccd577f4e487b7100000000000000000000000000000000000000000000000000000000600052604160045260246000fd5b6040519080825280601f01601f191660200182016040528015612cff5781602001600182028036833780820191505090505b5090507f300000000000000000000000000000000000000000000000000000000000000081600081518110612d5d577f4e487b7100000000000000000000000000000000000000000000000000000000600052603260045260246000fd5b60200101907effffffffffffffffffffffffffffffffffffffffffffffffffffffffffffff1916908160001a9053507f780000000000000000000000000000000000000000000000000000000000000081600181518110612de7577f4e487b7100000000000000000000000000000000000000000000000000000000600052603260045260246000fd5b60200101907effffffffffffffffffffffffffffffffffffffffffffffffffffffffffffff1916908160001a90535060006001846002612e279190614292565b612e31919061423c565b90505b6001811115612f1d577f3031323334353637383961626364656600000000000000000000000000000000600f861660108110612e99577f4e487b7100000000000000000000000000000000000000000000000000000000600052603260045260246000fd5b1a60f81b828281518110612ed6577f4e487b7100000000000000000000000000000000000000000000000000000000600052603260045260246000fd5b60200101907effffffffffffffffffffffffffffffffffffffffffffffffffffffffffffff1916908160001a905350600485901c945080612f16906143e0565b9050612e34565b5060008414612f61576040517f08c379a0000000000000000000000000000000000000000000000000000000008152600401612f5890613e7d565b60405180910390fd5b8091505092915050565b60007f01ffc9a7000000000000000000000000000000000000000000000000000000007bffffffffffffffffffffffffffffffffffffffffffffffffffffffff1916827bffffffffffffffffffffffffffffffffffffffffffffffffffffffff1916149050919050565b828054612fe19061440a565b90600052602060002090601f016020900481019282613003576000855561304a565b82601f1061301c57805160ff191683800117855561304a565b8280016001018555821561304a579182015b8281111561304957825182559160200191906001019061302e565b5b509050613057919061305b565b5090565b5b8082111561307457600081600090555060010161305c565b5090565b600061308b61308684614106565b6140e1565b905080838252602082019050828560208602820111156130aa57600080fd5b60005b858110156130da57816130c088826131cc565b8452602084019350602083019250506001810190506130ad565b5050509392505050565b60006130f76130f284614132565b6140e1565b9050808382526020820190508285602086028201111561311657600080fd5b60005b85811015613146578161312c88826132dd565b845260208401935060208301925050600181019050613119565b5050509392505050565b600061316361315e8461415e565b6140e1565b90508281526020810184848401111561317b57600080fd5b61318684828561439e565b509392505050565b60006131a161319c8461418f565b6140e1565b9050828152602081018484840111156131b957600080fd5b6131c484828561439e565b509392505050565b6000813590506131db81614b61565b92915050565b600082601f8301126131f257600080fd5b8135613202848260208601613078565b91505092915050565b600082601f83011261321c57600080fd5b813561322c8482602086016130e4565b91505092915050565b60008135905061324481614b78565b92915050565b60008135905061325981614b8f565b92915050565b60008135905061326e81614ba6565b92915050565b60008151905061328381614ba6565b92915050565b600082601f83011261329a57600080fd5b81356132aa848260208601613150565b91505092915050565b600082601f8301126132c457600080fd5b81356132d484826020860161318e565b91505092915050565b6000813590506132ec81614bbd565b92915050565b6000806040838503121561330557600080fd5b6000613313858286016131cc565b9250506020613324858286016131cc565b9150509250929050565b600080600080600060a0868803121561334657600080fd5b6000613354888289016131cc565b9550506020613365888289016131cc565b945050604086013567ffffffffffffffff81111561338257600080fd5b61338e8882890161320b565b935050606086013567ffffffffffffffff8111156133ab57600080fd5b6133b78882890161320b565b925050608086013567ffffffffffffffff8111156133d457600080fd5b6133e088828901613289565b9150509295509295909350565b600080600080600060a0868803121561340557600080fd5b6000613413888289016131cc565b9550506020613424888289016131cc565b9450506040613435888289016132dd565b9350506060613446888289016132dd565b925050608086013567ffffffffffffffff81111561346357600080fd5b61346f88828901613289565b9150509295509295909350565b60008060006060848603121561349157600080fd5b600061349f868287016131cc565b935050602084013567ffffffffffffffff8111156134bc57600080fd5b6134c88682870161320b565b925050604084013567ffffffffffffffff8111156134e557600080fd5b6134f18682870161320b565b9150509250925092565b6000806000806080858703121561351157600080fd5b600061351f878288016131cc565b945050602085013567ffffffffffffffff81111561353c57600080fd5b6135488782880161320b565b935050604085013567ffffffffffffffff81111561356557600080fd5b6135718782880161320b565b925050606085013567ffffffffffffffff81111561358e57600080fd5b61359a87828801613289565b91505092959194509250565b600080604083850312156135b957600080fd5b60006135c7858286016131cc565b92505060206135d885828601613235565b9150509250929050565b600080604083850312156135f557600080fd5b6000613603858286016131cc565b9250506020613614858286016132dd565b9150509250929050565b60008060006060848603121561363357600080fd5b6000613641868287016131cc565b9350506020613652868287016132dd565b9250506040613663868287016132dd565b9150509250925092565b6000806000806080858703121561368357600080fd5b6000613691878288016131cc565b94505060206136a2878288016132dd565b93505060406136b3878288016132dd565b925050606085013567ffffffffffffffff8111156136d057600080fd5b6136dc87828801613289565b91505092959194509250565b600080604083850312156136fb57600080fd5b600083013567ffffffffffffffff81111561371557600080fd5b613721858286016131e1565b925050602083013567ffffffffffffffff81111561373e57600080fd5b61374a8582860161320b565b9150509250929050565b60006020828403121561376657600080fd5b60006137748482850161324a565b91505092915050565b6000806040838503121561379057600080fd5b600061379e8582860161324a565b92505060206137af858286016131cc565b9150509250929050565b6000602082840312156137cb57600080fd5b60006137d98482850161325f565b91505092915050565b6000602082840312156137f457600080fd5b600061380284828501613274565b91505092915050565b60006020828403121561381d57600080fd5b600082013567ffffffffffffffff81111561383757600080fd5b613843848285016132b3565b91505092915050565b60006020828403121561385e57600080fd5b600061386c848285016132dd565b91505092915050565b60006138818383613c77565b60208301905092915050565b61389681614320565b82525050565b60006138a7826141d0565b6138b181856141fe565b93506138bc836141c0565b8060005b838110156138ed5781516138d48882613875565b97506138df836141f1565b9250506001810190506138c0565b5085935050505092915050565b61390381614332565b82525050565b6139128161433e565b82525050565b6000613923826141db565b61392d818561420f565b935061393d8185602086016143ad565b61394681614565565b840191505092915050565b600061395c826141e6565b6139668185614220565b93506139768185602086016143ad565b61397f81614565565b840191505092915050565b6000613995826141e6565b61399f8185614231565b93506139af8185602086016143ad565b80840191505092915050565b60006139c8603483614220565b91506139d382614583565b604082019050919050565b60006139eb602083614220565b91506139f6826145d2565b602082019050919050565b6000613a0e602883614220565b9150613a19826145fb565b604082019050919050565b6000613a31601483614220565b9150613a3c8261464a565b602082019050919050565b6000613a54602b83614220565b9150613a5f82614673565b604082019050919050565b6000613a77601883614220565b9150613a82826146c2565b602082019050919050565b6000613a9a602483614220565b9150613aa5826146eb565b604082019050919050565b6000613abd602983614220565b9150613ac88261473a565b604082019050919050565b6000613ae0601083614220565b9150613aeb82614789565b602082019050919050565b6000613b03602583614220565b9150613b0e826147b2565b604082019050919050565b6000613b26603283614220565b9150613b3182614801565b604082019050919050565b6000613b49602383614220565b9150613b5482614850565b604082019050919050565b6000613b6c602a83614220565b9150613b778261489f565b604082019050919050565b6000613b8f601783614231565b9150613b9a826148ee565b601782019050919050565b6000613bb2602983614220565b9150613bbd82614917565b604082019050919050565b6000613bd5602983614220565b9150613be082614966565b604082019050919050565b6000613bf8602883614220565b9150613c03826149b5565b604082019050919050565b6000613c1b602183614220565b9150613c2682614a04565b604082019050919050565b6000613c3e601183614231565b9150613c4982614a53565b601182019050919050565b6000613c61602f83614220565b9150613c6c82614a7c565b604082019050919050565b613c8081614394565b82525050565b613c8f81614394565b82525050565b6000613ca082613b82565b9150613cac828561398a565b9150613cb782613c31565b9150613cc3828461398a565b91508190509392505050565b6000602082019050613ce4600083018461388d565b92915050565b600060a082019050613cff600083018861388d565b613d0c602083018761388d565b8181036040830152613d1e818661389c565b90508181036060830152613d32818561389c565b90508181036080830152613d468184613918565b90509695505050505050565b600060a082019050613d67600083018861388d565b613d74602083018761388d565b613d816040830186613c86565b613d8e6060830185613c86565b8181036080830152613da08184613918565b90509695505050505050565b60006020820190508181036000830152613dc6818461389c565b905092915050565b60006040820190508181036000830152613de8818561389c565b90508181036020830152613dfc818461389c565b90509392505050565b6000602082019050613e1a60008301846138fa565b92915050565b6000602082019050613e356000830184613909565b92915050565b60006020820190508181036000830152613e558184613951565b905092915050565b60006020820190508181036000830152613e76816139bb565b9050919050565b60006020820190508181036000830152613e96816139de565b9050919050565b60006020820190508181036000830152613eb681613a01565b9050919050565b60006020820190508181036000830152613ed681613a24565b9050919050565b60006020820190508181036000830152613ef681613a47565b9050919050565b60006020820190508181036000830152613f1681613a6a565b9050919050565b60006020820190508181036000830152613f3681613a8d565b9050919050565b60006020820190508181036000830152613f5681613ab0565b9050919050565b60006020820190508181036000830152613f7681613ad3565b9050919050565b60006020820190508181036000830152613f9681613af6565b9050919050565b60006020820190508181036000830152613fb681613b19565b9050919050565b60006020820190508181036000830152613fd681613b3c565b9050919050565b60006020820190508181036000830152613ff681613b5f565b9050919050565b6000602082019050818103600083015261401681613ba5565b9050919050565b6000602082019050818103600083015261403681613bc8565b9050919050565b6000602082019050818103600083015261405681613beb565b9050919050565b6000602082019050818103600083015261407681613c0e565b9050919050565b6000602082019050818103600083015261409681613c54565b9050919050565b60006020820190506140b26000830184613c86565b92915050565b60006040820190506140cd6000830185613c86565b6140da6020830184613c86565b9392505050565b60006140eb6140fc565b90506140f7828261443c565b919050565b6000604051905090565b600067ffffffffffffffff82111561412157614120614514565b5b602082029050602081019050919050565b600067ffffffffffffffff82111561414d5761414c614514565b5b602082029050602081019050919050565b600067ffffffffffffffff82111561417957614178614514565b5b61418282614565565b9050602081019050919050565b600067ffffffffffffffff8211156141aa576141a9614514565b5b6141b382614565565b9050602081019050919050565b6000819050602082019050919050565b600081519050919050565b600081519050919050565b600081519050919050565b6000602082019050919050565b600082825260208201905092915050565b600082825260208201905092915050565b600082825260208201905092915050565b600081905092915050565b600061424782614394565b915061425283614394565b9250827fffffffffffffffffffffffffffffffffffffffffffffffffffffffffffffffff03821115614287576142866144b6565b5b828201905092915050565b600061429d82614394565b91506142a883614394565b9250817fffffffffffffffffffffffffffffffffffffffffffffffffffffffffffffffff04831182151516156142e1576142e06144b6565b5b828202905092915050565b60006142f782614394565b915061430283614394565b925082821015614315576143146144b6565b5b828203905092915050565b600061432b82614374565b9050919050565b60008115159050919050565b6000819050919050565b60007fffffffff0000000000000000000000000000000000000000000000000000000082169050919050565b600073ffffffffffffffffffffffffffffffffffffffff82169050919050565b6000819050919050565b82818337600083830152505050565b60005b838110156143cb5780820151818401526020810190506143b0565b838111156143da576000848401525b50505050565b60006143eb82614394565b915060008214156143ff576143fe6144b6565b5b600182039050919050565b6000600282049050600182168061442257607f821691505b60208210811415614436576144356144e5565b5b50919050565b61444582614565565b810181811067ffffffffffffffff8211171561446457614463614514565b5b80604052505050565b600061447882614394565b91507fffffffffffffffffffffffffffffffffffffffffffffffffffffffffffffffff8214156144ab576144aa6144b6565b5b600182019050919050565b7f4e487b7100000000000000000000000000000000000000000000000000000000600052601160045260246000fd5b7f4e487b7100000000000000000000000000000000000000000000000000000000600052602260045260246000fd5b7f4e487b7100000000000000000000000000000000000000000000000000000000600052604160045260246000fd5b600060033d11156145625760046000803e61455f600051614576565b90505b90565b6000601f19601f8301169050919050565b60008160e01c9050919050565b7f455243313135353a207472616e7366657220746f206e6f6e204552433131353560008201527f526563656976657220696d706c656d656e746572000000000000000000000000602082015250565b7f537472696e67733a20686578206c656e67746820696e73756666696369656e74600082015250565b7f455243313135353a204552433131353552656365697665722072656a6563746560008201527f6420746f6b656e73000000000000000000000000000000000000000000000000602082015250565b7f5061757361626c653a206e6f7420706175736564000000000000000000000000600082015250565b7f455243313135353a2062616c616e636520717565727920666f7220746865207a60008201527f65726f2061646472657373000000000000000000000000000000000000000000602082015250565b7f4d696e74696e6720696420616c72656164792065786973740000000000000000600082015250565b7f455243313135353a206275726e20616d6f756e7420657863656564732062616c60008201527f616e636500000000000000000000000000000000000000000000000000000000602082015250565b7f455243313135353a2063616c6c6572206973206e6f74206f776e6572206e6f7260008201527f20617070726f7665640000000000000000000000000000000000000000000000602082015250565b7f5061757361626c653a2070617573656400000000000000000000000000000000600082015250565b7f455243313135353a207472616e7366657220746f20746865207a65726f20616460008201527f6472657373000000000000000000000000000000000000000000000000000000602082015250565b7f455243313135353a207472616e736665722063616c6c6572206973206e6f742060008201527f6f776e6572206e6f7220617070726f7665640000000000000000000000000000602082015250565b7f455243313135353a206275726e2066726f6d20746865207a65726f206164647260008201527f6573730000000000000000000000000000000000000000000000000000000000602082015250565b7f455243313135353a20696e73756666696369656e742062616c616e636520666f60008201527f72207472616e7366657200000000000000000000000000000000000000000000602082015250565b7f416363657373436f6e74726f6c3a206163636f756e7420000000000000000000600082015250565b7f455243313135353a2073657474696e6720617070726f76616c2073746174757360008201527f20666f722073656c660000000000000000000000000000000000000000000000602082015250565b7f455243313135353a206163636f756e747320616e6420696473206c656e67746860008201527f206d69736d617463680000000000000000000000000000000000000000000000602082015250565b7f455243313135353a2069647320616e6420616d6f756e7473206c656e6774682060008201527f6d69736d61746368000000000000000000000000000000000000000000000000602082015250565b7f455243313135353a206d696e7420746f20746865207a65726f2061646472657360008201527f7300000000000000000000000000000000000000000000000000000000000000602082015250565b7f206973206d697373696e6720726f6c6520000000000000000000000000000000600082015250565b7f416363657373436f6e74726f6c3a2063616e206f6e6c792072656e6f756e636560008201527f20726f6c657320666f722073656c660000000000000000000000000000000000602082015250565b600060443d1015614adb57614b5e565b614ae36140fc565b60043d036004823e80513d602482011167ffffffffffffffff82111715614b0b575050614b5e565b808201805167ffffffffffffffff811115614b295750505050614b5e565b80602083010160043d038501811115614b46575050505050614b5e565b614b558260200185018661443c565b82955050505050505b90565b614b6a81614320565b8114614b7557600080fd5b50565b614b8181614332565b8114614b8c57600080fd5b50565b614b988161433e565b8114614ba357600080fd5b50565b614baf81614348565b8114614bba57600080fd5b50565b614bc681614394565b8114614bd157600080fd5b5056fea26469706673582212204a81dff44eee7d0f5c3f40dedb4278e85191bf11f16c85eb3cfbf18a51be119d64736f6c63430008040033687474703a2f2f3132372e302e302e313a393030302f6a736f6e2f7b69647d2e6a736f6e",
  "immutableReferences": {},
  "source": "// SPDX-License-Identifier: MIT\r\npragma solidity ^0.8.4;\r\nimport \"@openzeppelin/contracts/token/ERC1155/ERC1155.sol\";\r\nimport \"@openzeppelin/contracts/access/AccessControl.sol\";\r\nimport \"@openzeppelin/contracts/security/Pausable.sol\";\r\nimport \"@openzeppelin/contracts/token/ERC1155/extensions/ERC1155Burnable.sol\";\r\n\r\ncontract SFPCODE_v1 is ERC1155, AccessControl, Pausable, ERC1155Burnable {\r\n    bytes32 public constant URI_SETTER_ROLE = keccak256(\"URI_SETTER_ROLE\");\r\n    bytes32 public constant PAUSER_ROLE = keccak256(\"PAUSER_ROLE\");\r\n    bytes32 public constant MINTER_ROLE = keccak256(\"MINTER_ROLE\");\r\n\r\n    constructor() ERC1155(\"http://127.0.0.1:9000/json/{id}.json\") {\r\n        _setupRole(DEFAULT_ADMIN_ROLE, msg.sender);\r\n        _setupRole(URI_SETTER_ROLE, msg.sender);\r\n        _setupRole(PAUSER_ROLE, msg.sender);\r\n        _setupRole(MINTER_ROLE, msg.sender);\r\n    }\r\n\r\n    function checkExistance(uint256 id) public view returns (uint256){\r\n        return _checkExistance(id);\r\n    }\r\n\r\n    function addExistance(uint id) public {\r\n        require(hasRole(DEFAULT_ADMIN_ROLE, msg.sender));\r\n        _addExistance(id);\r\n    }\r\n\r\n    function removeExistance(uint id) public {\r\n        require(hasRole(DEFAULT_ADMIN_ROLE, msg.sender));\r\n        _removeExistance(id);\r\n    }\r\n\r\n    function setURI(string memory newuri) public {\r\n        require(hasRole(URI_SETTER_ROLE, msg.sender));\r\n        _setURI(newuri);\r\n    }\r\n\r\n    function pause() public {\r\n        require(hasRole(PAUSER_ROLE, msg.sender));\r\n        _pause();\r\n    }\r\n\r\n    function unpause() public {\r\n        require(hasRole(PAUSER_ROLE, msg.sender));\r\n        _unpause();\r\n    }\r\n\r\n    function mint(address account, uint256 id, uint256 amount, bytes memory data)\r\n        public\r\n    {\r\n        require(hasRole(MINTER_ROLE, msg.sender));\r\n        _mint(account, id, amount, data);\r\n    }\r\n\r\n    function mintBatch(address to, uint256[] memory ids, uint256[] memory amounts, bytes memory data)\r\n        public\r\n    {\r\n        require(hasRole(MINTER_ROLE, msg.sender));\r\n        _mintBatch(to, ids, amounts, data); \r\n    }\r\n\r\n    function _beforeTokenTransfer(address operator, address from, address to, uint256[] memory ids, uint256[] memory amounts, bytes memory data)\r\n        internal\r\n        whenNotPaused\r\n        override\r\n    {\r\n        super._beforeTokenTransfer(operator, from, to, ids, amounts, data);\r\n    }\r\n\r\n    function supportsInterface(bytes4 interfaceId)\r\n        public\r\n        view\r\n        override(ERC1155, AccessControl)\r\n        returns (bool)\r\n    {\r\n        return super.supportsInterface(interfaceId);\r\n    }\r\n}\r\n",
  "sourcePath": "C:/Fincode/SmartContract/contracts/SFPCODE_v1.sol",
  "compiler": {
    "name": "solc",
    "version": "0.8.4+commit.c7e474f2.Emscripten.clang"
  },
  "schemaVersion": "3.4.1",
  "updatedAt": "2021-10-15T07:48:07.440Z",
  "devdoc": {
    "kind": "dev",
    "methods": {
      "balanceOf(address,uint256)": {
        "details": "See {IERC1155-balanceOf}. Requirements: - `account` cannot be the zero address."
      },
      "balanceOfBatch(address[],uint256[])": {
        "details": "See {IERC1155-balanceOfBatch}. Requirements: - `accounts` and `ids` must have the same length."
      },
      "getRoleAdmin(bytes32)": {
        "details": "Returns the admin role that controls `role`. See {grantRole} and {revokeRole}. To change a role's admin, use {_setRoleAdmin}."
      },
      "grantRole(bytes32,address)": {
        "details": "Grants `role` to `account`. If `account` had not been already granted `role`, emits a {RoleGranted} event. Requirements: - the caller must have ``role``'s admin role."
      },
      "hasRole(bytes32,address)": {
        "details": "Returns `true` if `account` has been granted `role`."
      },
      "isApprovedForAll(address,address)": {
        "details": "See {IERC1155-isApprovedForAll}."
      },
      "paused()": {
        "details": "Returns true if the contract is paused, and false otherwise."
      },
      "renounceRole(bytes32,address)": {
        "details": "Revokes `role` from the calling account. Roles are often managed via {grantRole} and {revokeRole}: this function's purpose is to provide a mechanism for accounts to lose their privileges if they are compromised (such as when a trusted device is misplaced). If the calling account had been granted `role`, emits a {RoleRevoked} event. Requirements: - the caller must be `account`."
      },
      "revokeRole(bytes32,address)": {
        "details": "Revokes `role` from `account`. If `account` had been granted `role`, emits a {RoleRevoked} event. Requirements: - the caller must have ``role``'s admin role."
      },
      "safeBatchTransferFrom(address,address,uint256[],uint256[],bytes)": {
        "details": "See {IERC1155-safeBatchTransferFrom}."
      },
      "safeTransferFrom(address,address,uint256,uint256,bytes)": {
        "details": "See {IERC1155-safeTransferFrom}."
      },
      "setApprovalForAll(address,bool)": {
        "details": "See {IERC1155-setApprovalForAll}."
      },
      "uri(uint256)": {
        "details": "See {IERC1155MetadataURI-uri}. This implementation returns the same URI for *all* token types. It relies on the token type ID substitution mechanism https://eips.ethereum.org/EIPS/eip-1155#metadata[defined in the EIP]. Clients calling this function must replace the `\\{id\\}` substring with the actual token type ID."
      }
    },
    "version": 1
  },
  "userdoc": {
    "kind": "user",
    "methods": {},
    "version": 1
  }
}