{
  "contractName": "wizard",
  "abi": [
    {
      "inputs": [],
      "stateMutability": "nonpayable",
      "type": "constructor"
    },
    {
      "anonymous": false,
      "inputs": [
        {
          "indexed": true,
          "internalType": "address",
          "name": "account",
          "type": "address"
        },
        {
          "indexed": true,
          "internalType": "address",
          "name": "operator",
          "type": "address"
        },
        {
          "indexed": false,
          "internalType": "bool",
          "name": "approved",
          "type": "bool"
        }
      ],
      "name": "ApprovalForAll",
      "type": "event"
    },
    {
      "anonymous": false,
      "inputs": [
        {
          "indexed": false,
          "internalType": "address",
          "name": "account",
          "type": "address"
        }
      ],
      "name": "Paused",
      "type": "event"
    },
    {
      "anonymous": false,
      "inputs": [
        {
          "indexed": true,
          "internalType": "bytes32",
          "name": "role",
          "type": "bytes32"
        },
        {
          "indexed": true,
          "internalType": "bytes32",
          "name": "previousAdminRole",
          "type": "bytes32"
        },
        {
          "indexed": true,
          "internalType": "bytes32",
          "name": "newAdminRole",
          "type": "bytes32"
        }
      ],
      "name": "RoleAdminChanged",
      "type": "event"
    },
    {
      "anonymous": false,
      "inputs": [
        {
          "indexed": true,
          "internalType": "bytes32",
          "name": "role",
          "type": "bytes32"
        },
        {
          "indexed": true,
          "internalType": "address",
          "name": "account",
          "type": "address"
        },
        {
          "indexed": true,
          "internalType": "address",
          "name": "sender",
          "type": "address"
        }
      ],
      "name": "RoleGranted",
      "type": "event"
    },
    {
      "anonymous": false,
      "inputs": [
        {
          "indexed": true,
          "internalType": "bytes32",
          "name": "role",
          "type": "bytes32"
        },
        {
          "indexed": true,
          "internalType": "address",
          "name": "account",
          "type": "address"
        },
        {
          "indexed": true,
          "internalType": "address",
          "name": "sender",
          "type": "address"
        }
      ],
      "name": "RoleRevoked",
      "type": "event"
    },
    {
      "anonymous": false,
      "inputs": [
        {
          "indexed": true,
          "internalType": "address",
          "name": "operator",
          "type": "address"
        },
        {
          "indexed": true,
          "internalType": "address",
          "name": "from",
          "type": "address"
        },
        {
          "indexed": true,
          "internalType": "address",
          "name": "to",
          "type": "address"
        },
        {
          "indexed": false,
          "internalType": "uint256[]",
          "name": "ids",
          "type": "uint256[]"
        },
        {
          "indexed": false,
          "internalType": "uint256[]",
          "name": "values",
          "type": "uint256[]"
        }
      ],
      "name": "TransferBatch",
      "type": "event"
    },
    {
      "anonymous": false,
      "inputs": [
        {
          "indexed": true,
          "internalType": "address",
          "name": "operator",
          "type": "address"
        },
        {
          "indexed": true,
          "internalType": "address",
          "name": "from",
          "type": "address"
        },
        {
          "indexed": true,
          "internalType": "address",
          "name": "to",
          "type": "address"
        },
        {
          "indexed": false,
          "internalType": "uint256",
          "name": "id",
          "type": "uint256"
        },
        {
          "indexed": false,
          "internalType": "uint256",
          "name": "value",
          "type": "uint256"
        }
      ],
      "name": "TransferSingle",
      "type": "event"
    },
    {
      "anonymous": false,
      "inputs": [
        {
          "indexed": false,
          "internalType": "string",
          "name": "value",
          "type": "string"
        },
        {
          "indexed": true,
          "internalType": "uint256",
          "name": "id",
          "type": "uint256"
        }
      ],
      "name": "URI",
      "type": "event"
    },
    {
      "anonymous": false,
      "inputs": [
        {
          "indexed": false,
          "internalType": "address",
          "name": "account",
          "type": "address"
        }
      ],
      "name": "Unpaused",
      "type": "event"
    },
    {
      "inputs": [],
      "name": "DEFAULT_ADMIN_ROLE",
      "outputs": [
        {
          "internalType": "bytes32",
          "name": "",
          "type": "bytes32"
        }
      ],
      "stateMutability": "view",
      "type": "function",
      "constant": true
    },
    {
      "inputs": [],
      "name": "MINTER_ROLE",
      "outputs": [
        {
          "internalType": "bytes32",
          "name": "",
          "type": "bytes32"
        }
      ],
      "stateMutability": "view",
      "type": "function",
      "constant": true
    },
    {
      "inputs": [],
      "name": "PAUSER_ROLE",
      "outputs": [
        {
          "internalType": "bytes32",
          "name": "",
          "type": "bytes32"
        }
      ],
      "stateMutability": "view",
      "type": "function",
      "constant": true
    },
    {
      "inputs": [],
      "name": "URI_SETTER_ROLE",
      "outputs": [
        {
          "internalType": "bytes32",
          "name": "",
          "type": "bytes32"
        }
      ],
      "stateMutability": "view",
      "type": "function",
      "constant": true
    },
    {
      "inputs": [
        {
          "internalType": "address",
          "name": "account",
          "type": "address"
        },
        {
          "internalType": "uint256",
          "name": "id",
          "type": "uint256"
        }
      ],
      "name": "balanceOf",
      "outputs": [
        {
          "internalType": "uint256",
          "name": "",
          "type": "uint256"
        }
      ],
      "stateMutability": "view",
      "type": "function",
      "constant": true
    },
    {
      "inputs": [
        {
          "internalType": "address[]",
          "name": "accounts",
          "type": "address[]"
        },
        {
          "internalType": "uint256[]",
          "name": "ids",
          "type": "uint256[]"
        }
      ],
      "name": "balanceOfBatch",
      "outputs": [
        {
          "internalType": "uint256[]",
          "name": "",
          "type": "uint256[]"
        }
      ],
      "stateMutability": "view",
      "type": "function",
      "constant": true
    },
    {
      "inputs": [
        {
          "internalType": "address",
          "name": "account",
          "type": "address"
        },
        {
          "internalType": "uint256",
          "name": "id",
          "type": "uint256"
        },
        {
          "internalType": "uint256",
          "name": "value",
          "type": "uint256"
        }
      ],
      "name": "burn",
      "outputs": [],
      "stateMutability": "nonpayable",
      "type": "function"
    },
    {
      "inputs": [
        {
          "internalType": "address",
          "name": "account",
          "type": "address"
        },
        {
          "internalType": "uint256[]",
          "name": "ids",
          "type": "uint256[]"
        },
        {
          "internalType": "uint256[]",
          "name": "values",
          "type": "uint256[]"
        }
      ],
      "name": "burnBatch",
      "outputs": [],
      "stateMutability": "nonpayable",
      "type": "function"
    },
    {
      "inputs": [
        {
          "internalType": "bytes32",
          "name": "role",
          "type": "bytes32"
        }
      ],
      "name": "getRoleAdmin",
      "outputs": [
        {
          "internalType": "bytes32",
          "name": "",
          "type": "bytes32"
        }
      ],
      "stateMutability": "view",
      "type": "function",
      "constant": true
    },
    {
      "inputs": [
        {
          "internalType": "bytes32",
          "name": "role",
          "type": "bytes32"
        },
        {
          "internalType": "address",
          "name": "account",
          "type": "address"
        }
      ],
      "name": "grantRole",
      "outputs": [],
      "stateMutability": "nonpayable",
      "type": "function"
    },
    {
      "inputs": [
        {
          "internalType": "bytes32",
          "name": "role",
          "type": "bytes32"
        },
        {
          "internalType": "address",
          "name": "account",
          "type": "address"
        }
      ],
      "name": "hasRole",
      "outputs": [
        {
          "internalType": "bool",
          "name": "",
          "type": "bool"
        }
      ],
      "stateMutability": "view",
      "type": "function",
      "constant": true
    },
    {
      "inputs": [
        {
          "internalType": "address",
          "name": "account",
          "type": "address"
        },
        {
          "internalType": "address",
          "name": "operator",
          "type": "address"
        }
      ],
      "name": "isApprovedForAll",
      "outputs": [
        {
          "internalType": "bool",
          "name": "",
          "type": "bool"
        }
      ],
      "stateMutability": "view",
      "type": "function",
      "constant": true
    },
    {
      "inputs": [],
      "name": "paused",
      "outputs": [
        {
          "internalType": "bool",
          "name": "",
          "type": "bool"
        }
      ],
      "stateMutability": "view",
      "type": "function",
      "constant": true
    },
    {
      "inputs": [
        {
          "internalType": "bytes32",
          "name": "role",
          "type": "bytes32"
        },
        {
          "internalType": "address",
          "name": "account",
          "type": "address"
        }
      ],
      "name": "renounceRole",
      "outputs": [],
      "stateMutability": "nonpayable",
      "type": "function"
    },
    {
      "inputs": [
        {
          "internalType": "bytes32",
          "name": "role",
          "type": "bytes32"
        },
        {
          "internalType": "address",
          "name": "account",
          "type": "address"
        }
      ],
      "name": "revokeRole",
      "outputs": [],
      "stateMutability": "nonpayable",
      "type": "function"
    },
    {
      "inputs": [
        {
          "internalType": "address",
          "name": "from",
          "type": "address"
        },
        {
          "internalType": "address",
          "name": "to",
          "type": "address"
        },
        {
          "internalType": "uint256[]",
          "name": "ids",
          "type": "uint256[]"
        },
        {
          "internalType": "uint256[]",
          "name": "amounts",
          "type": "uint256[]"
        },
        {
          "internalType": "bytes",
          "name": "data",
          "type": "bytes"
        }
      ],
      "name": "safeBatchTransferFrom",
      "outputs": [],
      "stateMutability": "nonpayable",
      "type": "function"
    },
    {
      "inputs": [
        {
          "internalType": "address",
          "name": "from",
          "type": "address"
        },
        {
          "internalType": "address",
          "name": "to",
          "type": "address"
        },
        {
          "internalType": "uint256",
          "name": "id",
          "type": "uint256"
        },
        {
          "internalType": "uint256",
          "name": "amount",
          "type": "uint256"
        },
        {
          "internalType": "bytes",
          "name": "data",
          "type": "bytes"
        }
      ],
      "name": "safeTransferFrom",
      "outputs": [],
      "stateMutability": "nonpayable",
      "type": "function"
    },
    {
      "inputs": [
        {
          "internalType": "address",
          "name": "operator",
          "type": "address"
        },
        {
          "internalType": "bool",
          "name": "approved",
          "type": "bool"
        }
      ],
      "name": "setApprovalForAll",
      "outputs": [],
      "stateMutability": "nonpayable",
      "type": "function"
    },
    {
      "inputs": [
        {
          "internalType": "uint256",
          "name": "",
          "type": "uint256"
        }
      ],
      "name": "uri",
      "outputs": [
        {
          "internalType": "string",
          "name": "",
          "type": "string"
        }
      ],
      "stateMutability": "view",
      "type": "function",
      "constant": true
    },
    {
      "inputs": [
        {
          "internalType": "uint256",
          "name": "id",
          "type": "uint256"
        }
      ],
      "name": "checkExistance",
      "outputs": [
        {
          "internalType": "uint256",
          "name": "",
          "type": "uint256"
        }
      ],
      "stateMutability": "view",
      "type": "function",
      "constant": true
    },
    {
      "inputs": [
        {
          "internalType": "uint256",
          "name": "id",
          "type": "uint256"
        }
      ],
      "name": "addExistance",
      "outputs": [],
      "stateMutability": "nonpayable",
      "type": "function"
    },
    {
      "inputs": [
        {
          "internalType": "uint256",
          "name": "id",
          "type": "uint256"
        }
      ],
      "name": "removeExistance",
      "outputs": [],
      "stateMutability": "nonpayable",
      "type": "function"
    },
    {
      "inputs": [
        {
          "internalType": "string",
          "name": "newuri",
          "type": "string"
        }
      ],
      "name": "setURI",
      "outputs": [],
      "stateMutability": "nonpayable",
      "type": "function"
    },
    {
      "inputs": [],
      "name": "pause",
      "outputs": [],
      "stateMutability": "nonpayable",
      "type": "function"
    },
    {
      "inputs": [],
      "name": "unpause",
      "outputs": [],
      "stateMutability": "nonpayable",
      "type": "function"
    },
    {
      "inputs": [
        {
          "internalType": "address",
          "name": "account",
          "type": "address"
        },
        {
          "internalType": "uint256",
          "name": "id",
          "type": "uint256"
        },
        {
          "internalType": "uint256",
          "name": "amount",
          "type": "uint256"
        },
        {
          "internalType": "bytes",
          "name": "data",
          "type": "bytes"
        }
      ],
      "name": "mint",
      "outputs": [],
      "stateMutability": "nonpayable",
      "type": "function"
    },
    {
      "inputs": [
        {
          "internalType": "address",
          "name": "to",
          "type": "address"
        },
        {
          "internalType": "uint256[]",
          "name": "ids",
          "type": "uint256[]"
        },
        {
          "internalType": "uint256[]",
          "name": "amounts",
          "type": "uint256[]"
        },
        {
          "internalType": "bytes",
          "name": "data",
          "type": "bytes"
        }
      ],
      "name": "mintBatch",
      "outputs": [],
      "stateMutability": "nonpayable",
      "type": "function"
    },
    {
      "inputs": [
        {
          "internalType": "bytes4",
          "name": "interfaceId",
          "type": "bytes4"
        }
      ],
      "name": "supportsInterface",
      "outputs": [
        {
          "internalType": "bool",
          "name": "",
          "type": "bool"
        }
      ],
      "stateMutability": "view",
      "type": "function",
      "constant": true
    }
  ],
  "bytecode": "0x60806040523480156200001157600080fd5b5060405180606001604052806024815260200162004d61602491396200003d816200010a60201b60201c565b506000600560006101000a81548160ff0219169083151502179055506200006e6000801b336200012660201b60201c565b620000a07f7804d923f43a17d325d77e781528e0793b2edd9890ab45fc64efd7b4b427744c336200012660201b60201c565b620000d27f65d7a28e3265b37a6474929f336521b332c1681b933f6cb9f3376673440d862a336200012660201b60201c565b620001047f9f2df0fed2c77648de5860a4cc508cd0818c85b8b8a1ab4ceeef8d981c8956a6336200012660201b60201c565b620003b6565b806003908051906020019062000122929190620002a1565b5050565b6200013882826200013c60201b60201c565b5050565b6200014e82826200022e60201b60201c565b6200022a5760016004600084815260200190815260200160002060000160008373ffffffffffffffffffffffffffffffffffffffff1673ffffffffffffffffffffffffffffffffffffffff16815260200190815260200160002060006101000a81548160ff021916908315150217905550620001cf6200029960201b60201c565b73ffffffffffffffffffffffffffffffffffffffff168173ffffffffffffffffffffffffffffffffffffffff16837f2f8788117e7eff1d82e926ec794901d17c78024a50270940304540a733656f0d60405160405180910390a45b5050565b60006004600084815260200190815260200160002060000160008373ffffffffffffffffffffffffffffffffffffffff1673ffffffffffffffffffffffffffffffffffffffff16815260200190815260200160002060009054906101000a900460ff16905092915050565b600033905090565b828054620002af9062000351565b90600052602060002090601f016020900481019282620002d357600085556200031f565b82601f10620002ee57805160ff19168380011785556200031f565b828001600101855582156200031f579182015b828111156200031e57825182559160200191906001019062000301565b5b5090506200032e919062000332565b5090565b5b808211156200034d57600081600090555060010162000333565b5090565b600060028204905060018216806200036a57607f821691505b6020821081141562000381576200038062000387565b5b50919050565b7f4e487b7100000000000000000000000000000000000000000000000000000000600052602260045260246000fd5b61499b80620003c66000396000f3fe608060405234801561001057600080fd5b50600436106101c35760003560e01c80636b20c454116100f9578063d539139311610097578063e63ab1e911610071578063e63ab1e9146104d8578063e985e9c5146104f6578063f242432a14610526578063f5298aca14610542576101c3565b8063d53913931461046e578063d547741f1461048c578063db641cd5146104a8576101c3565b80638456cb59116100d35780638456cb59146103fa57806391d1485414610404578063a217fddf14610434578063a22cb46514610452576101c3565b80636b20c454146103a4578063731133e9146103c05780637f345710146103dc576101c3565b80632f2ff15d116101665780633f4ba83a116101405780633f4ba83a146103305780634b8028701461033a5780634e1273f4146103565780635c975abb14610386576101c3565b80632f2ff15d146102dc578063326b7257146102f857806336568abe14610314576101c3565b80630e89341c116101a25780630e89341c146102445780631f7fdffa14610274578063248a9ca3146102905780632eb2c2d6146102c0576101c3565b8062fdd58e146101c857806301ffc9a7146101f857806302fe530514610228575b600080fd5b6101e260048036038101906101dd919061348c565b61055e565b6040516101ef919061439f565b60405180910390f35b610212600480360381019061020d9190613663565b610627565b60405161021f9190614107565b60405180910390f35b610242600480360381019061023d91906136b5565b610639565b005b61025e600480360381019061025991906136f6565b610678565b60405161026b919061413d565b60405180910390f35b61028e600480360381019061028991906133a5565b61070c565b005b6102aa60048036038101906102a591906135fe565b610751565b6040516102b79190614122565b60405180910390f35b6102da60048036038101906102d591906131d8565b610771565b005b6102f660048036038101906102f19190613627565b610b67565b005b610312600480360381019061030d91906136f6565b610b90565b005b61032e60048036038101906103299190613627565b610bb2565b005b610338610c35565b005b610354600480360381019061034f91906136f6565b610c72565b005b610370600480360381019061036b9190613592565b610c94565b60405161037d91906140ae565b60405180910390f35b61038e610e45565b60405161039b9190614107565b60405180910390f35b6103be60048036038101906103b99190613326565b610e5c565b005b6103da60048036038101906103d59190613517565b610ef9565b005b6103e4610f3e565b6040516103f19190614122565b60405180910390f35b610402610f62565b005b61041e60048036038101906104199190613627565b610f9f565b60405161042b9190614107565b60405180910390f35b61043c61100a565b6040516104499190614122565b60405180910390f35b61046c60048036038101906104679190613450565b611011565b005b610476611192565b6040516104839190614122565b60405180910390f35b6104a660048036038101906104a19190613627565b6111b6565b005b6104c260048036038101906104bd91906136f6565b6111df565b6040516104cf919061439f565b60405180910390f35b6104e06111f1565b6040516104ed9190614122565b60405180910390f35b610510600480360381019061050b919061319c565b611215565b60405161051d9190614107565b60405180910390f35b610540600480360381019061053b9190613297565b6112a9565b005b61055c600480360381019061055791906134c8565b6115c1565b005b60008073ffffffffffffffffffffffffffffffffffffffff168373ffffffffffffffffffffffffffffffffffffffff1614156105cf576040517f08c379a00000000000000000000000000000000000000000000000000000000081526004016105c6906141df565b60405180910390fd5b60008083815260200190815260200160002060008473ffffffffffffffffffffffffffffffffffffffff1673ffffffffffffffffffffffffffffffffffffffff16815260200190815260200160002054905092915050565b60006106328261165e565b9050919050565b6106637f7804d923f43a17d325d77e781528e0793b2edd9890ab45fc64efd7b4b427744c33610f9f565b61066c57600080fd5b610675816116d8565b50565b60606003805461068790614716565b80601f01602080910402602001604051908101604052809291908181526020018280546106b390614716565b80156107005780601f106106d557610100808354040283529160200191610700565b820191906000526020600020905b8154815290600101906020018083116106e357829003601f168201915b50505050509050919050565b6107367f9f2df0fed2c77648de5860a4cc508cd0818c85b8b8a1ab4ceeef8d981c8956a633610f9f565b61073f57600080fd5b61074b848484846116f2565b50505050565b600060046000838152602001908152602001600020600101549050919050565b81518351146107b5576040517f08c379a00000000000000000000000000000000000000000000000000000000081526004016107ac9061433f565b60405180910390fd5b600073ffffffffffffffffffffffffffffffffffffffff168473ffffffffffffffffffffffffffffffffffffffff161415610825576040517f08c379a000000000000000000000000000000000000000000000000000000000815260040161081c9061427f565b60405180910390fd5b61082d611a30565b73ffffffffffffffffffffffffffffffffffffffff168573ffffffffffffffffffffffffffffffffffffffff16148061087357506108728561086d611a30565b611215565b5b6108b2576040517f08c379a00000000000000000000000000000000000000000000000000000000081526004016108a99061429f565b60405180910390fd5b60006108bc611a30565b90506108cc818787878787611a38565b60005b8451811015610ad2576000858281518110610913577f4e487b7100000000000000000000000000000000000000000000000000000000600052603260045260246000fd5b602002602001015190506000858381518110610958577f4e487b7100000000000000000000000000000000000000000000000000000000600052603260045260246000fd5b60200260200101519050600080600084815260200190815260200160002060008b73ffffffffffffffffffffffffffffffffffffffff1673ffffffffffffffffffffffffffffffffffffffff168152602001908152602001600020549050818110156109f9576040517f08c379a00000000000000000000000000000000000000000000000000000000081526004016109f0906142df565b60405180910390fd5b8181610a0591906145f8565b60008085815260200190815260200160002060008c73ffffffffffffffffffffffffffffffffffffffff1673ffffffffffffffffffffffffffffffffffffffff168152602001908152602001600020819055508160008085815260200190815260200160002060008b73ffffffffffffffffffffffffffffffffffffffff1673ffffffffffffffffffffffffffffffffffffffff1681526020019081526020016000206000828254610ab79190614548565b9250508190555050505080610acb90614748565b90506108cf565b508473ffffffffffffffffffffffffffffffffffffffff168673ffffffffffffffffffffffffffffffffffffffff168273ffffffffffffffffffffffffffffffffffffffff167f4a39dc06d4c0dbc64b70af90fd698a233a518aa5d07e595d983b8c0526c8f7fb8787604051610b499291906140d0565b60405180910390a4610b5f818787878787611a96565b505050505050565b610b7082610751565b610b8181610b7c611a30565b611c66565b610b8b8383611d03565b505050565b610b9d6000801b33610f9f565b610ba657600080fd5b610baf81611de4565b50565b610bba611a30565b73ffffffffffffffffffffffffffffffffffffffff168173ffffffffffffffffffffffffffffffffffffffff1614610c27576040517f08c379a0000000000000000000000000000000000000000000000000000000008152600401610c1e9061437f565b60405180910390fd5b610c318282611e00565b5050565b610c5f7f65d7a28e3265b37a6474929f336521b332c1681b933f6cb9f3376673440d862a33610f9f565b610c6857600080fd5b610c70611ee2565b565b610c7f6000801b33610f9f565b610c8857600080fd5b610c9181611f84565b50565b60608151835114610cda576040517f08c379a0000000000000000000000000000000000000000000000000000000008152600401610cd19061431f565b60405180910390fd5b6000835167ffffffffffffffff811115610d1d577f4e487b7100000000000000000000000000000000000000000000000000000000600052604160045260246000fd5b604051908082528060200260200182016040528015610d4b5781602001602082028036833780820191505090505b50905060005b8451811015610e3a57610de4858281518110610d96577f4e487b7100000000000000000000000000000000000000000000000000000000600052603260045260246000fd5b6020026020010151858381518110610dd7577f4e487b7100000000000000000000000000000000000000000000000000000000600052603260045260246000fd5b602002602001015161055e565b828281518110610e1d577f4e487b7100000000000000000000000000000000000000000000000000000000600052603260045260246000fd5b60200260200101818152505080610e3390614748565b9050610d51565b508091505092915050565b6000600560009054906101000a900460ff16905090565b610e64611a30565b73ffffffffffffffffffffffffffffffffffffffff168373ffffffffffffffffffffffffffffffffffffffff161480610eaa5750610ea983610ea4611a30565b611215565b5b610ee9576040517f08c379a0000000000000000000000000000000000000000000000000000000008152600401610ee09061423f565b60405180910390fd5b610ef4838383611fa0565b505050565b610f237f9f2df0fed2c77648de5860a4cc508cd0818c85b8b8a1ab4ceeef8d981c8956a633610f9f565b610f2c57600080fd5b610f38848484846122af565b50505050565b7f7804d923f43a17d325d77e781528e0793b2edd9890ab45fc64efd7b4b427744c81565b610f8c7f65d7a28e3265b37a6474929f336521b332c1681b933f6cb9f3376673440d862a33610f9f565b610f9557600080fd5b610f9d612499565b565b60006004600084815260200190815260200160002060000160008373ffffffffffffffffffffffffffffffffffffffff1673ffffffffffffffffffffffffffffffffffffffff16815260200190815260200160002060009054906101000a900460ff16905092915050565b6000801b81565b8173ffffffffffffffffffffffffffffffffffffffff16611030611a30565b73ffffffffffffffffffffffffffffffffffffffff161415611087576040517f08c379a000000000000000000000000000000000000000000000000000000000815260040161107e906142ff565b60405180910390fd5b8060016000611094611a30565b73ffffffffffffffffffffffffffffffffffffffff1673ffffffffffffffffffffffffffffffffffffffff16815260200190815260200160002060008473ffffffffffffffffffffffffffffffffffffffff1673ffffffffffffffffffffffffffffffffffffffff16815260200190815260200160002060006101000a81548160ff0219169083151502179055508173ffffffffffffffffffffffffffffffffffffffff16611141611a30565b73ffffffffffffffffffffffffffffffffffffffff167f17307eab39ab6107e8899845ad3d59bd9653f200f220920489ca2b5937696c31836040516111869190614107565b60405180910390a35050565b7f9f2df0fed2c77648de5860a4cc508cd0818c85b8b8a1ab4ceeef8d981c8956a681565b6111bf82610751565b6111d0816111cb611a30565b611c66565b6111da8383611e00565b505050565b60006111ea8261253c565b9050919050565b7f65d7a28e3265b37a6474929f336521b332c1681b933f6cb9f3376673440d862a81565b6000600160008473ffffffffffffffffffffffffffffffffffffffff1673ffffffffffffffffffffffffffffffffffffffff16815260200190815260200160002060008373ffffffffffffffffffffffffffffffffffffffff1673ffffffffffffffffffffffffffffffffffffffff16815260200190815260200160002060009054906101000a900460ff16905092915050565b600073ffffffffffffffffffffffffffffffffffffffff168473ffffffffffffffffffffffffffffffffffffffff161415611319576040517f08c379a00000000000000000000000000000000000000000000000000000000081526004016113109061427f565b60405180910390fd5b611321611a30565b73ffffffffffffffffffffffffffffffffffffffff168573ffffffffffffffffffffffffffffffffffffffff161480611367575061136685611361611a30565b611215565b5b6113a6576040517f08c379a000000000000000000000000000000000000000000000000000000000815260040161139d9061423f565b60405180910390fd5b60006113b0611a30565b90506113d08187876113c188612559565b6113ca88612559565b87611a38565b600080600086815260200190815260200160002060008873ffffffffffffffffffffffffffffffffffffffff1673ffffffffffffffffffffffffffffffffffffffff16815260200190815260200160002054905083811015611467576040517f08c379a000000000000000000000000000000000000000000000000000000000815260040161145e906142df565b60405180910390fd5b838161147391906145f8565b60008087815260200190815260200160002060008973ffffffffffffffffffffffffffffffffffffffff1673ffffffffffffffffffffffffffffffffffffffff168152602001908152602001600020819055508360008087815260200190815260200160002060008873ffffffffffffffffffffffffffffffffffffffff1673ffffffffffffffffffffffffffffffffffffffff16815260200190815260200160002060008282546115259190614548565b925050819055508573ffffffffffffffffffffffffffffffffffffffff168773ffffffffffffffffffffffffffffffffffffffff168373ffffffffffffffffffffffffffffffffffffffff167fc3d58168c5ae7397731d063d5bbf3d657854427343f4c083240f7aacaa2d0f6288886040516115a29291906143ba565b60405180910390a46115b882888888888861261f565b50505050505050565b6115c9611a30565b73ffffffffffffffffffffffffffffffffffffffff168373ffffffffffffffffffffffffffffffffffffffff16148061160f575061160e83611609611a30565b611215565b5b61164e576040517f08c379a00000000000000000000000000000000000000000000000000000000081526004016116459061423f565b60405180910390fd5b6116598383836127ef565b505050565b60007f7965db0b000000000000000000000000000000000000000000000000000000007bffffffffffffffffffffffffffffffffffffffffffffffffffffffff1916827bffffffffffffffffffffffffffffffffffffffffffffffffffffffff191614806116d157506116d082612a1e565b5b9050919050565b80600390805190602001906116ee929190612e7f565b5050565b600073ffffffffffffffffffffffffffffffffffffffff168473ffffffffffffffffffffffffffffffffffffffff161415611762576040517f08c379a00000000000000000000000000000000000000000000000000000000081526004016117599061435f565b60405180910390fd5b81518351146117a6576040517f08c379a000000000000000000000000000000000000000000000000000000000815260040161179d9061433f565b60405180910390fd5b60006117b0611a30565b90506117c181600087878787611a38565b60005b845181101561199a57600061181886838151811061180b577f4e487b7100000000000000000000000000000000000000000000000000000000600052603260045260246000fd5b602002602001015161253c565b14611858576040517f08c379a000000000000000000000000000000000000000000000000000000000815260040161184f906141ff565b60405180910390fd5b838181518110611891577f4e487b7100000000000000000000000000000000000000000000000000000000600052603260045260246000fd5b60200260200101516000808784815181106118d5577f4e487b7100000000000000000000000000000000000000000000000000000000600052603260045260246000fd5b6020026020010151815260200190815260200160002060008873ffffffffffffffffffffffffffffffffffffffff1673ffffffffffffffffffffffffffffffffffffffff16815260200190815260200160002060008282546119379190614548565b9250508190555061198785828151811061197a577f4e487b7100000000000000000000000000000000000000000000000000000000600052603260045260246000fd5b6020026020010151611de4565b808061199290614748565b9150506117c4565b508473ffffffffffffffffffffffffffffffffffffffff16600073ffffffffffffffffffffffffffffffffffffffff168273ffffffffffffffffffffffffffffffffffffffff167f4a39dc06d4c0dbc64b70af90fd698a233a518aa5d07e595d983b8c0526c8f7fb8787604051611a129291906140d0565b60405180910390a4611a2981600087878787611a96565b5050505050565b600033905090565b611a40610e45565b15611a80576040517f08c379a0000000000000000000000000000000000000000000000000000000008152600401611a779061425f565b60405180910390fd5b611a8e868686868686612b00565b505050505050565b611ab58473ffffffffffffffffffffffffffffffffffffffff16612b08565b15611c5e578373ffffffffffffffffffffffffffffffffffffffff1663bc197c8187878686866040518663ffffffff1660e01b8152600401611afb959493929190613fec565b602060405180830381600087803b158015611b1557600080fd5b505af1925050508015611b4657506040513d601f19601f82011682018060405250810190611b43919061368c565b60015b611bd557611b5261483c565b80611b5d5750611b9a565b806040517f08c379a0000000000000000000000000000000000000000000000000000000008152600401611b91919061413d565b60405180910390fd5b6040517f08c379a0000000000000000000000000000000000000000000000000000000008152600401611bcc9061415f565b60405180910390fd5b63bc197c8160e01b7bffffffffffffffffffffffffffffffffffffffffffffffffffffffff1916817bffffffffffffffffffffffffffffffffffffffffffffffffffffffff191614611c5c576040517f08c379a0000000000000000000000000000000000000000000000000000000008152600401611c539061419f565b60405180910390fd5b505b505050505050565b611c708282610f9f565b611cff57611c958173ffffffffffffffffffffffffffffffffffffffff166014612b1b565b611ca38360001c6020612b1b565b604051602001611cb4929190613f97565b6040516020818303038152906040526040517f08c379a0000000000000000000000000000000000000000000000000000000008152600401611cf6919061413d565b60405180910390fd5b5050565b611d0d8282610f9f565b611de05760016004600084815260200190815260200160002060000160008373ffffffffffffffffffffffffffffffffffffffff1673ffffffffffffffffffffffffffffffffffffffff16815260200190815260200160002060006101000a81548160ff021916908315150217905550611d85611a30565b73ffffffffffffffffffffffffffffffffffffffff168173ffffffffffffffffffffffffffffffffffffffff16837f2f8788117e7eff1d82e926ec794901d17c78024a50270940304540a733656f0d60405160405180910390a45b5050565b6001600260008381526020019081526020016000208190555050565b611e0a8282610f9f565b15611ede5760006004600084815260200190815260200160002060000160008373ffffffffffffffffffffffffffffffffffffffff1673ffffffffffffffffffffffffffffffffffffffff16815260200190815260200160002060006101000a81548160ff021916908315150217905550611e83611a30565b73ffffffffffffffffffffffffffffffffffffffff168173ffffffffffffffffffffffffffffffffffffffff16837ff6391f5c32d9c69d2a47ea670b442974b53935d1edc7fd64eb21e047a839171b60405160405180910390a45b5050565b611eea610e45565b611f29576040517f08c379a0000000000000000000000000000000000000000000000000000000008152600401611f20906141bf565b60405180910390fd5b6000600560006101000a81548160ff0219169083151502179055507f5db9ee0a495bf2e6ff9c91a7834c1ba4fdd244a5e8aa4e537bd38aeae4b073aa611f6d611a30565b604051611f7a9190613fd1565b60405180910390a1565b6000600260008381526020019081526020016000208190555050565b600073ffffffffffffffffffffffffffffffffffffffff168373ffffffffffffffffffffffffffffffffffffffff161415612010576040517f08c379a0000000000000000000000000000000000000000000000000000000008152600401612007906142bf565b60405180910390fd5b8051825114612054576040517f08c379a000000000000000000000000000000000000000000000000000000000815260040161204b9061433f565b60405180910390fd5b600061205e611a30565b905061207e81856000868660405180602001604052806000815250611a38565b60005b83518110156122295760008482815181106120c5577f4e487b7100000000000000000000000000000000000000000000000000000000600052603260045260246000fd5b60200260200101519050600084838151811061210a577f4e487b7100000000000000000000000000000000000000000000000000000000600052603260045260246000fd5b60200260200101519050600080600084815260200190815260200160002060008973ffffffffffffffffffffffffffffffffffffffff1673ffffffffffffffffffffffffffffffffffffffff168152602001908152602001600020549050818110156121ab576040517f08c379a00000000000000000000000000000000000000000000000000000000081526004016121a29061421f565b60405180910390fd5b81816121b791906145f8565b60008085815260200190815260200160002060008a73ffffffffffffffffffffffffffffffffffffffff1673ffffffffffffffffffffffffffffffffffffffff1681526020019081526020016000208190555061221383611f84565b505050808061222190614748565b915050612081565b50600073ffffffffffffffffffffffffffffffffffffffff168473ffffffffffffffffffffffffffffffffffffffff168273ffffffffffffffffffffffffffffffffffffffff167f4a39dc06d4c0dbc64b70af90fd698a233a518aa5d07e595d983b8c0526c8f7fb86866040516122a19291906140d0565b60405180910390a450505050565b600073ffffffffffffffffffffffffffffffffffffffff168473ffffffffffffffffffffffffffffffffffffffff16141561231f576040517f08c379a00000000000000000000000000000000000000000000000000000000081526004016123169061435f565b60405180910390fd5b600061232a8461253c565b1461236a576040517f08c379a0000000000000000000000000000000000000000000000000000000008152600401612361906141ff565b60405180910390fd5b6000612374611a30565b90506123958160008761238688612559565b61238f88612559565b87611a38565b8260008086815260200190815260200160002060008773ffffffffffffffffffffffffffffffffffffffff1673ffffffffffffffffffffffffffffffffffffffff16815260200190815260200160002060008282546123f49190614548565b9250508190555061240484611de4565b8473ffffffffffffffffffffffffffffffffffffffff16600073ffffffffffffffffffffffffffffffffffffffff168273ffffffffffffffffffffffffffffffffffffffff167fc3d58168c5ae7397731d063d5bbf3d657854427343f4c083240f7aacaa2d0f62878760405161247b9291906143ba565b60405180910390a46124928160008787878761261f565b5050505050565b6124a1610e45565b156124e1576040517f08c379a00000000000000000000000000000000000000000000000000000000081526004016124d89061425f565b60405180910390fd5b6001600560006101000a81548160ff0219169083151502179055507f62e78cea01bee320cd4e420270b5ea74000d11b0c9f74754ebdbfc544b05a258612525611a30565b6040516125329190613fd1565b60405180910390a1565b600060026000838152602001908152602001600020549050919050565b60606000600167ffffffffffffffff81111561259e577f4e487b7100000000000000000000000000000000000000000000000000000000600052604160045260246000fd5b6040519080825280602002602001820160405280156125cc5781602001602082028036833780820191505090505b509050828160008151811061260a577f4e487b7100000000000000000000000000000000000000000000000000000000600052603260045260246000fd5b60200260200101818152505080915050919050565b61263e8473ffffffffffffffffffffffffffffffffffffffff16612b08565b156127e7578373ffffffffffffffffffffffffffffffffffffffff1663f23a6e6187878686866040518663ffffffff1660e01b8152600401612684959493929190614054565b602060405180830381600087803b15801561269e57600080fd5b505af19250505080156126cf57506040513d601f19601f820116820180604052508101906126cc919061368c565b60015b61275e576126db61483c565b806126e65750612723565b806040517f08c379a000000000000000000000000000000000000000000000000000000000815260040161271a919061413d565b60405180910390fd5b6040517f08c379a00000000000000000000000000000000000000000000000000000000081526004016127559061415f565b60405180910390fd5b63f23a6e6160e01b7bffffffffffffffffffffffffffffffffffffffffffffffffffffffff1916817bffffffffffffffffffffffffffffffffffffffffffffffffffffffff1916146127e5576040517f08c379a00000000000000000000000000000000000000000000000000000000081526004016127dc9061419f565b60405180910390fd5b505b505050505050565b600073ffffffffffffffffffffffffffffffffffffffff168373ffffffffffffffffffffffffffffffffffffffff16141561285f576040517f08c379a0000000000000000000000000000000000000000000000000000000008152600401612856906142bf565b60405180910390fd5b6000612869611a30565b90506128998185600061287b87612559565b61288487612559565b60405180602001604052806000815250611a38565b600080600085815260200190815260200160002060008673ffffffffffffffffffffffffffffffffffffffff1673ffffffffffffffffffffffffffffffffffffffff16815260200190815260200160002054905082811015612930576040517f08c379a00000000000000000000000000000000000000000000000000000000081526004016129279061421f565b60405180910390fd5b828161293c91906145f8565b60008086815260200190815260200160002060008773ffffffffffffffffffffffffffffffffffffffff1673ffffffffffffffffffffffffffffffffffffffff1681526020019081526020016000208190555061299884611f84565b600073ffffffffffffffffffffffffffffffffffffffff168573ffffffffffffffffffffffffffffffffffffffff168373ffffffffffffffffffffffffffffffffffffffff167fc3d58168c5ae7397731d063d5bbf3d657854427343f4c083240f7aacaa2d0f628787604051612a0f9291906143ba565b60405180910390a45050505050565b60007fd9b67a26000000000000000000000000000000000000000000000000000000007bffffffffffffffffffffffffffffffffffffffffffffffffffffffff1916827bffffffffffffffffffffffffffffffffffffffffffffffffffffffff19161480612ae957507f0e89341c000000000000000000000000000000000000000000000000000000007bffffffffffffffffffffffffffffffffffffffffffffffffffffffff1916827bffffffffffffffffffffffffffffffffffffffffffffffffffffffff1916145b80612af95750612af882612e15565b5b9050919050565b505050505050565b600080823b905060008111915050919050565b606060006002836002612b2e919061459e565b612b389190614548565b67ffffffffffffffff811115612b77577f4e487b7100000000000000000000000000000000000000000000000000000000600052604160045260246000fd5b6040519080825280601f01601f191660200182016040528015612ba95781602001600182028036833780820191505090505b5090507f300000000000000000000000000000000000000000000000000000000000000081600081518110612c07577f4e487b7100000000000000000000000000000000000000000000000000000000600052603260045260246000fd5b60200101907effffffffffffffffffffffffffffffffffffffffffffffffffffffffffffff1916908160001a9053507f780000000000000000000000000000000000000000000000000000000000000081600181518110612c91577f4e487b7100000000000000000000000000000000000000000000000000000000600052603260045260246000fd5b60200101907effffffffffffffffffffffffffffffffffffffffffffffffffffffffffffff1916908160001a90535060006001846002612cd1919061459e565b612cdb9190614548565b90505b6001811115612dc7577f3031323334353637383961626364656600000000000000000000000000000000600f861660108110612d43577f4e487b7100000000000000000000000000000000000000000000000000000000600052603260045260246000fd5b1a60f81b828281518110612d80577f4e487b7100000000000000000000000000000000000000000000000000000000600052603260045260246000fd5b60200101907effffffffffffffffffffffffffffffffffffffffffffffffffffffffffffff1916908160001a905350600485901c945080612dc0906146ec565b9050612cde565b5060008414612e0b576040517f08c379a0000000000000000000000000000000000000000000000000000000008152600401612e029061417f565b60405180910390fd5b8091505092915050565b60007f01ffc9a7000000000000000000000000000000000000000000000000000000007bffffffffffffffffffffffffffffffffffffffffffffffffffffffff1916827bffffffffffffffffffffffffffffffffffffffffffffffffffffffff1916149050919050565b828054612e8b90614716565b90600052602060002090601f016020900481019282612ead5760008555612ef4565b82601f10612ec657805160ff1916838001178555612ef4565b82800160010185558215612ef4579182015b82811115612ef3578251825591602001919060010190612ed8565b5b509050612f019190612f05565b5090565b5b80821115612f1e576000816000905550600101612f06565b5090565b6000612f35612f3084614414565b6143e3565b90508083825260208201905082856020860282011115612f5457600080fd5b60005b85811015612f845781612f6a8882613076565b845260208401935060208301925050600181019050612f57565b5050509392505050565b6000612fa1612f9c84614440565b6143e3565b90508083825260208201905082856020860282011115612fc057600080fd5b60005b85811015612ff05781612fd68882613187565b845260208401935060208301925050600181019050612fc3565b5050509392505050565b600061300d6130088461446c565b6143e3565b90508281526020810184848401111561302557600080fd5b6130308482856146aa565b509392505050565b600061304b6130468461449c565b6143e3565b90508281526020810184848401111561306357600080fd5b61306e8482856146aa565b509392505050565b600081359050613085816148f2565b92915050565b600082601f83011261309c57600080fd5b81356130ac848260208601612f22565b91505092915050565b600082601f8301126130c657600080fd5b81356130d6848260208601612f8e565b91505092915050565b6000813590506130ee81614909565b92915050565b60008135905061310381614920565b92915050565b60008135905061311881614937565b92915050565b60008151905061312d81614937565b92915050565b600082601f83011261314457600080fd5b8135613154848260208601612ffa565b91505092915050565b600082601f83011261316e57600080fd5b813561317e848260208601613038565b91505092915050565b6000813590506131968161494e565b92915050565b600080604083850312156131af57600080fd5b60006131bd85828601613076565b92505060206131ce85828601613076565b9150509250929050565b600080600080600060a086880312156131f057600080fd5b60006131fe88828901613076565b955050602061320f88828901613076565b945050604086013567ffffffffffffffff81111561322c57600080fd5b613238888289016130b5565b935050606086013567ffffffffffffffff81111561325557600080fd5b613261888289016130b5565b925050608086013567ffffffffffffffff81111561327e57600080fd5b61328a88828901613133565b9150509295509295909350565b600080600080600060a086880312156132af57600080fd5b60006132bd88828901613076565b95505060206132ce88828901613076565b94505060406132df88828901613187565b93505060606132f088828901613187565b925050608086013567ffffffffffffffff81111561330d57600080fd5b61331988828901613133565b9150509295509295909350565b60008060006060848603121561333b57600080fd5b600061334986828701613076565b935050602084013567ffffffffffffffff81111561336657600080fd5b613372868287016130b5565b925050604084013567ffffffffffffffff81111561338f57600080fd5b61339b868287016130b5565b9150509250925092565b600080600080608085870312156133bb57600080fd5b60006133c987828801613076565b945050602085013567ffffffffffffffff8111156133e657600080fd5b6133f2878288016130b5565b935050604085013567ffffffffffffffff81111561340f57600080fd5b61341b878288016130b5565b925050606085013567ffffffffffffffff81111561343857600080fd5b61344487828801613133565b91505092959194509250565b6000806040838503121561346357600080fd5b600061347185828601613076565b9250506020613482858286016130df565b9150509250929050565b6000806040838503121561349f57600080fd5b60006134ad85828601613076565b92505060206134be85828601613187565b9150509250929050565b6000806000606084860312156134dd57600080fd5b60006134eb86828701613076565b93505060206134fc86828701613187565b925050604061350d86828701613187565b9150509250925092565b6000806000806080858703121561352d57600080fd5b600061353b87828801613076565b945050602061354c87828801613187565b935050604061355d87828801613187565b925050606085013567ffffffffffffffff81111561357a57600080fd5b61358687828801613133565b91505092959194509250565b600080604083850312156135a557600080fd5b600083013567ffffffffffffffff8111156135bf57600080fd5b6135cb8582860161308b565b925050602083013567ffffffffffffffff8111156135e857600080fd5b6135f4858286016130b5565b9150509250929050565b60006020828403121561361057600080fd5b600061361e848285016130f4565b91505092915050565b6000806040838503121561363a57600080fd5b6000613648858286016130f4565b925050602061365985828601613076565b9150509250929050565b60006020828403121561367557600080fd5b600061368384828501613109565b91505092915050565b60006020828403121561369e57600080fd5b60006136ac8482850161311e565b91505092915050565b6000602082840312156136c757600080fd5b600082013567ffffffffffffffff8111156136e157600080fd5b6136ed8482850161315d565b91505092915050565b60006020828403121561370857600080fd5b600061371684828501613187565b91505092915050565b600061372b8383613f79565b60208301905092915050565b6137408161462c565b82525050565b6000613751826144dc565b61375b818561450a565b9350613766836144cc565b8060005b8381101561379757815161377e888261371f565b9750613789836144fd565b92505060018101905061376a565b5085935050505092915050565b6137ad8161463e565b82525050565b6137bc8161464a565b82525050565b60006137cd826144e7565b6137d7818561451b565b93506137e78185602086016146b9565b6137f08161481e565b840191505092915050565b6000613806826144f2565b613810818561452c565b93506138208185602086016146b9565b6138298161481e565b840191505092915050565b600061383f826144f2565b613849818561453d565b93506138598185602086016146b9565b80840191505092915050565b600061387260348361452c565b91507f455243313135353a207472616e7366657220746f206e6f6e204552433131353560008301527f526563656976657220696d706c656d656e7465720000000000000000000000006020830152604082019050919050565b60006138d860208361452c565b91507f537472696e67733a20686578206c656e67746820696e73756666696369656e746000830152602082019050919050565b600061391860288361452c565b91507f455243313135353a204552433131353552656365697665722072656a6563746560008301527f6420746f6b656e730000000000000000000000000000000000000000000000006020830152604082019050919050565b600061397e60148361452c565b91507f5061757361626c653a206e6f74207061757365640000000000000000000000006000830152602082019050919050565b60006139be602b8361452c565b91507f455243313135353a2062616c616e636520717565727920666f7220746865207a60008301527f65726f20616464726573730000000000000000000000000000000000000000006020830152604082019050919050565b6000613a2460188361452c565b91507f4d696e74696e6720696420616c726561647920657869737400000000000000006000830152602082019050919050565b6000613a6460248361452c565b91507f455243313135353a206275726e20616d6f756e7420657863656564732062616c60008301527f616e6365000000000000000000000000000000000000000000000000000000006020830152604082019050919050565b6000613aca60298361452c565b91507f455243313135353a2063616c6c6572206973206e6f74206f776e6572206e6f7260008301527f20617070726f76656400000000000000000000000000000000000000000000006020830152604082019050919050565b6000613b3060108361452c565b91507f5061757361626c653a20706175736564000000000000000000000000000000006000830152602082019050919050565b6000613b7060258361452c565b91507f455243313135353a207472616e7366657220746f20746865207a65726f20616460008301527f64726573730000000000000000000000000000000000000000000000000000006020830152604082019050919050565b6000613bd660328361452c565b91507f455243313135353a207472616e736665722063616c6c6572206973206e6f742060008301527f6f776e6572206e6f7220617070726f76656400000000000000000000000000006020830152604082019050919050565b6000613c3c60238361452c565b91507f455243313135353a206275726e2066726f6d20746865207a65726f206164647260008301527f65737300000000000000000000000000000000000000000000000000000000006020830152604082019050919050565b6000613ca2602a8361452c565b91507f455243313135353a20696e73756666696369656e742062616c616e636520666f60008301527f72207472616e73666572000000000000000000000000000000000000000000006020830152604082019050919050565b6000613d0860178361453d565b91507f416363657373436f6e74726f6c3a206163636f756e74200000000000000000006000830152601782019050919050565b6000613d4860298361452c565b91507f455243313135353a2073657474696e6720617070726f76616c2073746174757360008301527f20666f722073656c6600000000000000000000000000000000000000000000006020830152604082019050919050565b6000613dae60298361452c565b91507f455243313135353a206163636f756e747320616e6420696473206c656e67746860008301527f206d69736d6174636800000000000000000000000000000000000000000000006020830152604082019050919050565b6000613e1460288361452c565b91507f455243313135353a2069647320616e6420616d6f756e7473206c656e6774682060008301527f6d69736d617463680000000000000000000000000000000000000000000000006020830152604082019050919050565b6000613e7a60218361452c565b91507f455243313135353a206d696e7420746f20746865207a65726f2061646472657360008301527f73000000000000000000000000000000000000000000000000000000000000006020830152604082019050919050565b6000613ee060118361453d565b91507f206973206d697373696e6720726f6c65200000000000000000000000000000006000830152601182019050919050565b6000613f20602f8361452c565b91507f416363657373436f6e74726f6c3a2063616e206f6e6c792072656e6f756e636560008301527f20726f6c657320666f722073656c6600000000000000000000000000000000006020830152604082019050919050565b613f82816146a0565b82525050565b613f91816146a0565b82525050565b6000613fa282613cfb565b9150613fae8285613834565b9150613fb982613ed3565b9150613fc58284613834565b91508190509392505050565b6000602082019050613fe66000830184613737565b92915050565b600060a0820190506140016000830188613737565b61400e6020830187613737565b81810360408301526140208186613746565b905081810360608301526140348185613746565b9050818103608083015261404881846137c2565b90509695505050505050565b600060a0820190506140696000830188613737565b6140766020830187613737565b6140836040830186613f88565b6140906060830185613f88565b81810360808301526140a281846137c2565b90509695505050505050565b600060208201905081810360008301526140c88184613746565b905092915050565b600060408201905081810360008301526140ea8185613746565b905081810360208301526140fe8184613746565b90509392505050565b600060208201905061411c60008301846137a4565b92915050565b600060208201905061413760008301846137b3565b92915050565b6000602082019050818103600083015261415781846137fb565b905092915050565b6000602082019050818103600083015261417881613865565b9050919050565b60006020820190508181036000830152614198816138cb565b9050919050565b600060208201905081810360008301526141b88161390b565b9050919050565b600060208201905081810360008301526141d881613971565b9050919050565b600060208201905081810360008301526141f8816139b1565b9050919050565b6000602082019050818103600083015261421881613a17565b9050919050565b6000602082019050818103600083015261423881613a57565b9050919050565b6000602082019050818103600083015261425881613abd565b9050919050565b6000602082019050818103600083015261427881613b23565b9050919050565b6000602082019050818103600083015261429881613b63565b9050919050565b600060208201905081810360008301526142b881613bc9565b9050919050565b600060208201905081810360008301526142d881613c2f565b9050919050565b600060208201905081810360008301526142f881613c95565b9050919050565b6000602082019050818103600083015261431881613d3b565b9050919050565b6000602082019050818103600083015261433881613da1565b9050919050565b6000602082019050818103600083015261435881613e07565b9050919050565b6000602082019050818103600083015261437881613e6d565b9050919050565b6000602082019050818103600083015261439881613f13565b9050919050565b60006020820190506143b46000830184613f88565b92915050565b60006040820190506143cf6000830185613f88565b6143dc6020830184613f88565b9392505050565b6000604051905081810181811067ffffffffffffffff8211171561440a576144096147ef565b5b8060405250919050565b600067ffffffffffffffff82111561442f5761442e6147ef565b5b602082029050602081019050919050565b600067ffffffffffffffff82111561445b5761445a6147ef565b5b602082029050602081019050919050565b600067ffffffffffffffff821115614487576144866147ef565b5b601f19601f8301169050602081019050919050565b600067ffffffffffffffff8211156144b7576144b66147ef565b5b601f19601f8301169050602081019050919050565b6000819050602082019050919050565b600081519050919050565b600081519050919050565b600081519050919050565b6000602082019050919050565b600082825260208201905092915050565b600082825260208201905092915050565b600082825260208201905092915050565b600081905092915050565b6000614553826146a0565b915061455e836146a0565b9250827fffffffffffffffffffffffffffffffffffffffffffffffffffffffffffffffff0382111561459357614592614791565b5b828201905092915050565b60006145a9826146a0565b91506145b4836146a0565b9250817fffffffffffffffffffffffffffffffffffffffffffffffffffffffffffffffff04831182151516156145ed576145ec614791565b5b828202905092915050565b6000614603826146a0565b915061460e836146a0565b92508282101561462157614620614791565b5b828203905092915050565b600061463782614680565b9050919050565b60008115159050919050565b6000819050919050565b60007fffffffff0000000000000000000000000000000000000000000000000000000082169050919050565b600073ffffffffffffffffffffffffffffffffffffffff82169050919050565b6000819050919050565b82818337600083830152505050565b60005b838110156146d75780820151818401526020810190506146bc565b838111156146e6576000848401525b50505050565b60006146f7826146a0565b9150600082141561470b5761470a614791565b5b600182039050919050565b6000600282049050600182168061472e57607f821691505b60208210811415614742576147416147c0565b5b50919050565b6000614753826146a0565b91507fffffffffffffffffffffffffffffffffffffffffffffffffffffffffffffffff82141561478657614785614791565b5b600182019050919050565b7f4e487b7100000000000000000000000000000000000000000000000000000000600052601160045260246000fd5b7f4e487b7100000000000000000000000000000000000000000000000000000000600052602260045260246000fd5b7f4e487b7100000000000000000000000000000000000000000000000000000000600052604160045260246000fd5b6000601f19601f8301169050919050565b60008160e01c9050919050565b600060443d101561484c576148ef565b60046000803e61485d60005161482f565b6308c379a0811461486e57506148ef565b60405160043d036004823e80513d602482011167ffffffffffffffff8211171561489a575050506148ef565b808201805167ffffffffffffffff8111156148b95750505050506148ef565b8060208301013d85018111156148d4575050505050506148ef565b6148dd8261481e565b60208401016040528296505050505050505b90565b6148fb8161462c565b811461490657600080fd5b50565b6149128161463e565b811461491d57600080fd5b50565b6149298161464a565b811461493457600080fd5b50565b61494081614654565b811461494b57600080fd5b50565b614957816146a0565b811461496257600080fd5b5056fea26469706673582212204c6968136f8c16214456a8e3a7f41d2184acc77d482f812aeec62dbea3e2387564736f6c63430008000033687474703a2f2f3132372e302e302e313a393030302f6a736f6e2f7b69647d2e6a736f6e",
  "immutableReferences": {},
  "source": "// SPDX-License-Identifier: MIT\r\npragma solidity ^0.8.0;\r\nimport \"@openzeppelin/contracts/token/ERC1155/ERC1155.sol\";\r\nimport \"@openzeppelin/contracts/access/AccessControl.sol\";\r\nimport \"@openzeppelin/contracts/security/Pausable.sol\";\r\nimport \"@openzeppelin/contracts/token/ERC1155/extensions/ERC1155Burnable.sol\";\r\n\r\ncontract wizard is ERC1155, AccessControl, Pausable, ERC1155Burnable {\r\n    bytes32 public constant URI_SETTER_ROLE = keccak256(\"URI_SETTER_ROLE\");\r\n    bytes32 public constant PAUSER_ROLE = keccak256(\"PAUSER_ROLE\");\r\n    bytes32 public constant MINTER_ROLE = keccak256(\"MINTER_ROLE\");\r\n\r\n    constructor() ERC1155(\"http://127.0.0.1:9000/json/{id}.json\") {\r\n        _setupRole(DEFAULT_ADMIN_ROLE, msg.sender);\r\n        _setupRole(URI_SETTER_ROLE, msg.sender);\r\n        _setupRole(PAUSER_ROLE, msg.sender);\r\n        _setupRole(MINTER_ROLE, msg.sender);\r\n    }\r\n\r\n    function checkExistance(uint256 id) public view returns (uint256){\r\n        return _checkExistance(id);\r\n    }\r\n\r\n    function addExistance(uint id) public {\r\n        require(hasRole(DEFAULT_ADMIN_ROLE, msg.sender));\r\n        _addExistance(id);\r\n    }\r\n\r\n    function removeExistance(uint id) public {\r\n        require(hasRole(DEFAULT_ADMIN_ROLE, msg.sender));\r\n        _removeExistance(id);\r\n    }\r\n\r\n    function setURI(string memory newuri) public {\r\n        require(hasRole(URI_SETTER_ROLE, msg.sender));\r\n        _setURI(newuri);\r\n    }\r\n\r\n    function pause() public {\r\n        require(hasRole(PAUSER_ROLE, msg.sender));\r\n        _pause();\r\n    }\r\n\r\n    function unpause() public {\r\n        require(hasRole(PAUSER_ROLE, msg.sender));\r\n        _unpause();\r\n    }\r\n\r\n    function mint(address account, uint256 id, uint256 amount, bytes memory data)\r\n        public\r\n    {\r\n        require(hasRole(MINTER_ROLE, msg.sender));\r\n        _mint(account, id, amount, data);\r\n    }\r\n\r\n    function mintBatch(address to, uint256[] memory ids, uint256[] memory amounts, bytes memory data)\r\n        public\r\n    {\r\n        require(hasRole(MINTER_ROLE, msg.sender));\r\n        _mintBatch(to, ids, amounts, data); \r\n    }\r\n\r\n    function _beforeTokenTransfer(address operator, address from, address to, uint256[] memory ids, uint256[] memory amounts, bytes memory data)\r\n        internal\r\n        whenNotPaused\r\n        override\r\n    {\r\n        super._beforeTokenTransfer(operator, from, to, ids, amounts, data);\r\n    }\r\n\r\n    function supportsInterface(bytes4 interfaceId)\r\n        public\r\n        view\r\n        override(ERC1155, AccessControl)\r\n        returns (bool)\r\n    {\r\n        return super.supportsInterface(interfaceId);\r\n    }\r\n}\r\n",
  "sourcePath": "D:/Lavoro/FinCode/dev/Fincode-SmartContract/contracts/wizard.sol",
  "compiler": {
    "name": "solc",
    "version": "0.8.0+commit.c7dfd78e.Emscripten.clang"
  },
  "schemaVersion": "3.4.1",
  "updatedAt": "2021-06-25T16:44:43.939Z",
  "networkType": "ethereum",
  "devdoc": {
    "kind": "dev",
    "methods": {
      "balanceOf(address,uint256)": {
        "details": "See {IERC1155-balanceOf}. Requirements: - `account` cannot be the zero address."
      },
      "balanceOfBatch(address[],uint256[])": {
        "details": "See {IERC1155-balanceOfBatch}. Requirements: - `accounts` and `ids` must have the same length."
      },
      "getRoleAdmin(bytes32)": {
        "details": "Returns the admin role that controls `role`. See {grantRole} and {revokeRole}. To change a role's admin, use {_setRoleAdmin}."
      },
      "grantRole(bytes32,address)": {
        "details": "Grants `role` to `account`. If `account` had not been already granted `role`, emits a {RoleGranted} event. Requirements: - the caller must have ``role``'s admin role."
      },
      "hasRole(bytes32,address)": {
        "details": "Returns `true` if `account` has been granted `role`."
      },
      "isApprovedForAll(address,address)": {
        "details": "See {IERC1155-isApprovedForAll}."
      },
      "paused()": {
        "details": "Returns true if the contract is paused, and false otherwise."
      },
      "renounceRole(bytes32,address)": {
        "details": "Revokes `role` from the calling account. Roles are often managed via {grantRole} and {revokeRole}: this function's purpose is to provide a mechanism for accounts to lose their privileges if they are compromised (such as when a trusted device is misplaced). If the calling account had been granted `role`, emits a {RoleRevoked} event. Requirements: - the caller must be `account`."
      },
      "revokeRole(bytes32,address)": {
        "details": "Revokes `role` from `account`. If `account` had been granted `role`, emits a {RoleRevoked} event. Requirements: - the caller must have ``role``'s admin role."
      },
      "safeBatchTransferFrom(address,address,uint256[],uint256[],bytes)": {
        "details": "See {IERC1155-safeBatchTransferFrom}."
      },
      "safeTransferFrom(address,address,uint256,uint256,bytes)": {
        "details": "See {IERC1155-safeTransferFrom}."
      },
      "setApprovalForAll(address,bool)": {
        "details": "See {IERC1155-setApprovalForAll}."
      },
      "uri(uint256)": {
        "details": "See {IERC1155MetadataURI-uri}. This implementation returns the same URI for *all* token types. It relies on the token type ID substitution mechanism https://eips.ethereum.org/EIPS/eip-1155#metadata[defined in the EIP]. Clients calling this function must replace the `\\{id\\}` substring with the actual token type ID."
      }
    },
    "version": 1
  },
  "userdoc": {
    "kind": "user",
    "methods": {},
    "version": 1
  }
}